:03000000020006F5
:03005F0002000399
:030003000203AE47
:20006200AF828F061FEE70FA22AE82AF837C007D008C028D03C3EA9EEB9F50147A707B0008
:200082001ABAFF011BEA4B70F70CBC00E40D80E1228582A0C287C286D2857582011200629C
:2000A200C2857582010200628582A0D287C286D285758201120062C285758201020062D21B
:2000C20084D283D28275821412006275823E1200937582401200937582B81200937582C0B1
:2000E20012009375823F020093D284D2837E007F008E0574B82DF582C007C006120093D081
:2001020006D0077C007D00758200C007C006C005C0041200AAD004D005D006D0070CBC0020
:20012200010DC3EC9440ED6480948040DA0EBE00010FC3EE9408EF6480948040B4758240F2
:200142001200937582B8020093D284C2837E007F008E0574B82DF582C007C006120093D0B7
:2001620006D007C3EE9407EF64809480E433FDC3EE9403EF6480948092007B007C00200081
:2001820057EB4C7053758245C007C006C005C004C003120093D003D004D005D006D007ED3C
:2001A200601C7582FFC007C006C005C004C0031200AAD003D004D005D006D007801A75827C
:2001C2003FC007C006C005C004C0031200AAD003D004D005D006D0070BBB00010CC3EB940B
:2001E20040EC6480948040960EBE00010FC3EE9408EF6480948050030201537582BB120086
:20020200937582431200937582041200AA7582441200937582021200AA75824612009375C7
:2002220082021200AA7582471200937582041200AAD284C2837582BF12009375824612009D
:20024200937E067F00758220C007C0061200AAD006D0070EBE00010FC3EE9440EF64809431
:200262008040E2C284D2837582BF1200937582401200937E007F00758220C007C006120055
:20028200AAD006D0070EBE00010FC3EE9420EF6480948040E275825E120093758270120048
:2002A200AA75825D1200937582A80200AAAF827802E4F208F208F2743F08F2D284C283741D
:2002C200B82FF5821200937582401200937A007F007C007B00EC2475F582EB3405F583E4D1
:2002E20093F582C007C004C003C0021200AAD002D003D004D00774012AFDE43FFEED543F99
:200302006003020397C002C007B284B283C004C0037802E2C0E008E2C0E008E2C0E008E267
:20032200C0E090000075F03A74431203C5AA82AD83AEF0FFE58124FCF581D003D0048A82B3
:200342008D838EF0EFC007C004C003C002120487120093E4C0E0C0E0C0E0743FC0E078023B
:20036200E2F58208E2F58308E2F5F008E21203C57802C0E0E582F2E58308F2E5F008F2D0B9
:20038200E008F2E58124FCF581D002D003D004D007D007D0020ABA00010F0CBC00010BC321
:2003A200EC9405EB940050030202D7221200C11200EB12014B7582001202AF9001F4120068
:0303C2006B80FE4F
:2005700000000000007E1111117E7F494949363E414141227F4141221C7F494949417F0927
:200590000909013E4149497A7F0808087F00417F41002040413F017F081422417F40404078
:2005B000407F020C027F7F0408107F3E4141413E7F090909063E4151215E7F09192946463F
:2005D0004949493101017F01013F4040403F1F2040201F3F4038403F6314081463070870D5
:0705F0000807615149454372
:06003500E478FFF6D8FD9F
:200013007900E94400601B7A009005F7780175A000E493F2A308B8000205A0D9F4DAF27597
:02003300A0FF2C
:20003B007805E84400600A790175A000E4F309D8FC7800E84400600C7900900001E4F0A3BE
:04005B00D8FCD9FAFA
:2003C50012048F7900E583B58202800D500312046DE583C395821204BDE5D0C465D020E132
:2003E50017EA2DFAEB3EFBEC3FFC500974011204BDEC4480FC02041EC3EA9DFAEB9EFBEC60
:190405009FFC500FC3E499F9E49AFAE49BFBE49CFCB2D112050002041E7F
:20041E00B98003EA13B34010EA2401FAE43BFBE43CFC50047C800582BC000EBB000BBA0022
:20043E0008E4F5F0F583F58222A2D1E582138CF092F78B838A8222E4F583F58275F080F4E2
:0F045E00A2D11322E4F583F58275F0C0747F22DA
:1A046D00E582C583F582A2D133A2D592D11392D5ECCFFCEBCEFBEACDFA2217
:0D000600758120120533E5826003020003BE
:080487007F86120539F582227F
:20048F00AA82AB83A2F73392D1F5826002D2F7ACF0E58124F9F8E6FD08E6FE0886F008E6D0
:0E04AF00A2F73392D5F5836002D2F7AFF022A8
:2004BD006040F82582500274FFF582E824F8501ECCCBCAF9E4CC24F85014CBCAF9E4CB2447
:2004DD00F8500BCAF9E4CA24F8500379002224086010F8C3EC13FCEB13FBEA13FAE913F9FA
:0304FD00D8F12211
:200500007804EC7011E58224F8500AF582E4C9CACBFCD8EF22EC7820058220E713D58201FA
:1305200022C3E933F9EA33FAEB33FBEC33FCD8EA15822208
:0405330075820022AB
:200537007F9E12055E30D10302043FC3EF9582500974FFF5F0F583F5822279001204BD8969
:07055700828A838BF0EC2285
:12055E00AA82AB83A2F73392D1F5826002D2F7ACF022A2
:00000001FF
