:0600000002001902034A90
:01000B0032C2
:0300130002037570
:0F007200750E01750F00751064751100020016F0
:0300160002039F43
:2000810085821885831985F01AF51B9003E8E4F5F01204C0AC82AD83AEF0FFC3E49CE49DA7
:2000A100E49E74808FF063F08095F04001225389F0438901C2A9C3EE9401EF64809480401E
:2000C1000FE4F58CF58AEE24FFFEEF34FFFF8057E4C39CF512E49DF51374019EF514E49FB3
:2000E100F515E4F518751901F51AF51B8512828513838514F0E51512057DA882888CE4F5F4
:2001010018751901F51AF51B8512828513838514F0E51512052EA882A983AAF0FB888A7CA3
:20012100007D007E007F00C28DD28C308DFDC28C02009C7590FFAC10E511FD3395E0FE8C0C
:20014100828D838EF01200817F03E4F50AF50B7401B50E0614B50F02800122EFF4F590ABC8
:2001610010E511FC3395E0FD8B828C838DF0C007120081D0078F06EE2EFF050AE4B50A02A9
:20018100050BC3E50A9407E50B6480948040C07FC0E4F50AF50B7401B50E0614B50F02805F
:2001A1000122EFF4F590AB10E511FC3395E0FD8B828C838DF0C007120081D007EFC313FFD3
:2001C100050AE4B50A02050BC3E50A9407E50B6480948040C1227590FFAC10E511FD339587
:2001E100E0FE8C828D838EF0120081E4FFF50AF50B751608F5177C01E4F50CF50DE51624ED
:20020100FFFAE51734FFFBC3E50C9516E50D64808517F063F08095F0504C7402B50E06E4E2
:20022100B50F02800122EF4CF4F590A810E511F93395E0FD888289838DF0C007C004C00373
:20024100C002120081D002D003D004D007EAB50C06EBB50D0280058C06EE2EFC050CE4B5BF
:200261000CA5050D80A1EC4207151674FFB516021517050AE4B50A02050BC3E50A9408E5D6
:200281000B6480948050030201F7E4F50AF50B7402B50E06E4B50F02800122EFF4F590AB8B
:2002A10010E511FC3395E0FD8B828C838DF0C007120081D007EFC313FF050AE4B50A02054F
:2002C1000BC3E50A9408E50B6480948040C1227590FFAC10E511FD3395E0FE8C828D838EB4
:2002E100F01200817F017E80E4F50AF50B7403B50E06E4B50F02800122EE4FFDF4F590BF1A
:200301000802801AAA10E511FB3395E0FC8A828B838CF0C007C006120081D006D0078F05F2
:20032100ED2DFFEEC313FE050AE4B50A02050BC3E50A9408E50B6480948040B122D2B2D27E
:20034100B3D288D28A75A88522C0E0C0D0C2AF7401B50E0614B50F0280028008750E0375B1
:200361000F008009150E74FFB50E02150FD2AFD0D0D0E032C0E0C0D0C2AF7403B50E06E49D
:20038100B50F0280028008750E01750F008008050EE4B50E02050FD2AFD0D0D0E032120314
:2003A1003E7401B50E0614B50F028002800512013480EE7402B50E06E4B50F02800280053A
:1703C1001201D780DC7403B50E06E4B50F02800280CF1202D080CAF6
:2003D800F9E5184519451A451B60777800C308E51B20E73BE51825E0F518E51933F519E563
:2003F8001A33F51AE51B33F51BE5829518E5839519E5F0951AE9951B50D4C3E51B13F51BF5
:20041800E51A13F51AE51913F519E51813F518E5829518FCE5839519FDE5F0951AFEE99544
:200438001B4007F98EF08D838C82C3E51B13F51BE51A13F51AE51913F519E51813F518D892
:03045800CEE922C8
:20045B00FB7A20E4FCFDFEFFE5822582F582E58333F583E5F033F5F0EB33FB4017DAE980DA
:20047B0042E5822582F582E58333F583E5F033F5F0EB33FBEC33FCED33FDEE33FEEF33FF09
:20049B00EC9518ED9519EE951AEF951B4013EC9518FCED9519FDEE951AFEEF951BFF438253
:0504BB0001DABEEB2296
:06004800E478FFF6D8FD8C
:200026007900E94400601B7A009005D3780175A000E493F2A308B8000205A0D9F4DAF275A8
:02004600A0FF19
:2004C000AAF0FBE5828518F0A4FCADF0E5838518F0A42DFDE435F0FEE5828519F0A42DFDC9
:2004E000E5F03EFEE433FFEA8518F0A42EFEE5F03FFFE5838519F0A42EFEE5F03FFFE5823B
:20050000851AF0A42EFEE5F03FFFEB8518F0A42FFFEA8519F0A42FFFE583851AF0A42FFF0C
:0E052000E582851BF0A42F8EF08D838C822245
:20004E007800E84400600A790175A000E4F309D8FC7800E84400600C7900900001E4F0A3B0
:04006E00D8FCD9FAE7
:20052E00F9C2D530E715D2D5E4C39582F582E49583F583E495F0F5F0E499F9E51B30E715B1
:20054E00E4C39518F518E49519F519E4951AF51AE4951BF51BE91203D830D512E4C395829B
:0F056E00F582E49583F583E495F0F5F0E49922A6
:20057D00FBC2D530E715D2D5E4C39582F582E49583F583E495F0F5F0E49BFBE51B30E7175A
:20059D00B2D5E4C39518F518E49519F519E4951AF51AE4951BF51BEB12045B30D513FBE41D
:1205BD00C39582F582E49583F583E495F0F5F0E49B2278
:0D00190075811B1205CFE582600302001601
:0405CF00758200220F
:00000001FF
