:03000000020006F5
:09005F00750E64750F0002000328
:030003000202E90D
:2000680085821685831785F018F5199003E8E4F5F01203E5AC82AD83AEF0FFC3E49CE49DA4
:20008800E49E74808FF063F08095F04001225389F0438901C2A9C3EE9401EF648094804037
:2000A8000FE4F58CF58AEE24FFFEEF34FFFF8057E4C39CF510E49DF51174019EF512E49FD2
:2000C800F513E4F516751701F518F5198510828511838512F0E5131204A2A882888CE4F5FB
:2000E80016751701F518F5198510828511838512F0E513120453A882A983AAF0FB888A7CA9
:20010800007D007E007F00C28DD28C308DFDC28C0200837590FFAC0EE50FFD3395E0FE8C42
:20012800828D838EF01200687F03E4F50AF50BEFF4F590AB0EE50FFC3395E0FD8B828C83F6
:200148008DF0C007120068D0078F06EE2EFF050AE4B50A02050BC3E50A9407E50B648094D9
:200168008040CC7FC0E4F50AF50BEFF4F590AB0EE50FFC3395E0FD8B828C838DF0C00712A1
:200188000068D007EFC313FF050AE4B50A02050BC3E50A9407E50B6480948040CD22759027
:2001A800FFAC0EE50FFD3395E0FE8C828D838EF0120068E4FFF50AF50B751408F5157C01D7
:2001C800E4F50CF50DE51424FFFAE51534FFFBC3E50C9514E50D64808515F063F08095F0DD
:2001E8005040EF4CF4F590A80EE50FF93395E0FD888289838DF0C007C004C003C0021200B6
:2002080068D002D003D004D007EAB50C06EBB50D0280058C06EE2EFC050CE4B50CB1050D16
:2002280080ADEC4207151474FFB514021515050AE4B50A02050BC3E50A9408E50B64809449
:200248008050030201C6E4F50AF50BEFF4F590AB0EE50FFC3395E0FD8B828C838DF0C00701
:20026800120068D007EFC313FF050AE4B50A02050BC3E50A9408E50B6480948040CD2275C3
:2002880090FFAC0EE50FFD3395E0FE8C828D838EF01200687F017E80E4F50AF50BEE4FFDC5
:2002A800F4F590BF0802801AAA0EE50FFB3395E0FC8A828B838CF0C007C006120068D0069C
:2002C800D0078F05ED2DFFEEC313FE050AE4B50A02050BC3E50A9408E50B6480948040BDD9
:1502E8002212011B12011B1201A61201A612028712028780EC6F
:2002FD00F9E51645174518451960777800C308E51920E73BE51625E0F516E51733F517E551
:20031D001833F518E51933F519E5829516E5839517E5F09518E9951950D4C3E51913F519E4
:20033D00E51813F518E51713F517E51613F516E5829516FCE5839517FDE5F09518FEE99532
:20035D00194007F98EF08D838C82C3E51913F519E51813F518E51713F517E51613F516D880
:03037D00CEE922A4
:20038000FB7A20E4FCFDFEFFE5822582F582E58333F583E5F033F5F0EB33FB4017DAE980B6
:2003A00042E5822582F582E58333F583E5F033F5F0EB33FBEC33FCED33FDEE33FEEF33FFE5
:2003C000EC9516ED9517EE9518EF95194013EC9516FCED9517FDEE9518FEEF9519FF43823F
:0503E00001DABEEB2272
:06003500E478FFF6D8FD9F
:200013007900E94400601B7A009004F8780175A000E493F2A308B8000205A0D9F4DAF27597
:02003300A0FF2C
:2003E500AAF0FBE5828516F0A4FCADF0E5838516F0A42DFDE435F0FEE5828517F0A42DFDAB
:20040500E5F03EFEE433FFEA8516F0A42EFEE5F03FFFE5838517F0A42EFEE5F03FFFE5821A
:200425008518F0A42EFEE5F03FFFEB8516F0A42FFFEA8517F0A42FFFE5838518F0A42FFFF0
:0E044500E5828519F0A42F8EF08D838C822223
:20003B007800E84400600A790175A000E4F309D8FC7800E84400600C7900900001E4F0A3C3
:04005B00D8FCD9FAFA
:20045300F9C2D530E715D2D5E4C39582F582E49583F583E495F0F5F0E499F9E51930E7158F
:20047300E4C39516F516E49517F517E49518F518E49519F519E91202FD30D512E4C3958263
:0F049300F582E49583F583E495F0F5F0E4992282
:2004A200FBC2D530E715D2D5E4C39582F582E49583F583E495F0F5F0E49BFBE51930E71738
:2004C200B2D5E4C39516F516E49517F517E49518F518E49519F519EB12038030D513FBE4E5
:1204E200C39582F582E49583F583E495F0F5F0E49B2254
:0D0006007581191204F4E582600302000305
:0404F40075820022EB
:00000001FF
