:020000040800F2
:100000000000032095050008DD1D0008DF1D000825
:10001000E11D0008E31D0008E51D000800000000C8
:10002000000000000000000000000000F164000873
:10003000E71D00080000000081650008F35D00086E
:10004000E5050008E5050008E5050008E5050008E8
:10005000E5050008E50500080D1E0008E505000897
:10006000E5050008E5050008E5050008E5050008C8
:10007000E5050008E5050008E5050008E5050008B8
:10008000E5050008E5050008E5050008E5050008A8
:10009000E5050008E5050008E5050008E505000898
:1000A000E5050008E5050008E5050008E505000888
:1000B000E5050008E5050008E5050008E505000878
:1000C000E5050008E5050008E5050008E505000868
:1000D000E5050008E5050008E5050008E505000858
:1000E000E5050008E5050008E5050008E505000848
:1000F000E5050008E5050008E5050008E505000838
:10010000E5050008E5050008E5050008E505000827
:10011000E5050008E5050008E91D0008E5050008FB
:10012000E5050008E5050008E5050008E505000807
:10013000E5050008E5050008E5050008E5050008F7
:10014000E5050008E5050008E5050008E5050008E7
:10015000E5050008E5050008E5050008E5050008D7
:10016000E5050008E5050008E5050008E5050008C7
:10017000E5050008E5050008E505000800000000A9
:10018000E5050008E5050008E5050008E5050008A7
:10019000E5050008E5050008E5050008E505000897
:0C01A000F51D0008E5050008011E000820
:1001B00010B5054C237833B9044B13B10448AFF3A1
:1001C00000800123237010BD6C010020000000009E
:1001D00038BB010808B5034B1BB103490348AFF313
:1001E000008008BD000000007001002038BB01083D
:1001F00001F0FF01102A2BDB10F0070F08D010F8D8
:10020000013B013A8B422DD010F0070F42B3F6D1DB
:10021000F0B441EA012141EA014122F007047FF0F4
:1002200000070023F0E80256083C85EA010586EA4B
:10023000010685FA47F5A3FA87F586FA47F6A5FA87
:1002400087F68EB9EED1F0BC01F0FF0102F0070293
:1002500032B110F8013B013A83EA010313B1F8D13E
:100260000020704701387047002D06BF354603381F
:10027000073815F0010F07D1013015F4807F02BF58
:10028000013015F4C03F0130F0BC0138704700BFA9
:1002900053B94AB9002908BF00281CBF4FF0FF31ED
:1002A0004FF0FF3000F074B9ADF1080C6DE904CEE9
:1002B00000F006F8DDF804E0DDE9022304B0704741
:1002C0002DE9F047089D04468E46002B4DD18A4209
:1002D000944669D9B2FA82F252B101FA02F3C2F13C
:1002E000200120FA01F10CFA02FC41EA030E9440CD
:1002F0004FEA1C48210CBEFBF8F61FFA8CF708FBEE
:1003000016E341EA034306FB07F199420AD91CEBC5
:10031000030306F1FF3080F01F81994240F21C81F7
:10032000023E63445B1AA4B2B3FBF8F008FB10333F
:1003300044EA034400FB07F7A7420AD91CEB040474
:1003400000F1FF3380F00A81A74240F20781644444
:10035000023840EA0640E41B00261DB1D4400023C9
:10036000C5E900433146BDE8F0878B4209D9002D2D
:1003700000F0EF800026C5E9000130463146BDE8B7
:10038000F087B3FA83F6002E4AD18B4202D3824221
:1003900000F2F980841A61EB030301209E46002DD0
:1003A000E0D0C5E9004EDDE702B9FFDEB2FA82F225
:1003B000002A40F09280A1EB0C014FEA1C471FFA83
:1003C0008CFE0126200CB1FBF7F307FB131140EA6A
:1003D00001410EFB03F0884208D91CEB010103F137
:1003E000FF3802D2884200F2CB804346091AA4B2F9
:1003F000B1FBF7F007FB101144EA01440EFB00FECD
:10040000A64508D91CEB040400F1FF3102D2A64531
:1004100000F2BB800846A4EB0E0440EA03409CE7D0
:10042000C6F12007B34022FA07FC4CEA030C20FA7D
:1004300007F401FA06F31C43F9404FEA1C4900FA9D
:1004400006F3B1FBF9F8200C1FFA8CFE09FB18111A
:1004500040EA014108FB0EF0884202FA06F20BD98D
:100460001CEB010108F1FF3A80F08880884240F2DD
:100470008580A8F102086144091AA4B2B1FBF9F021
:1004800009FB101144EA014100FB0EFE8E4508D91C
:100490001CEB010100F1FF346CD28E456AD90238A1
:1004A000614440EA0840A0FB0294A1EB0E01A14286
:1004B000C846A64656D353D05DB1B3EB080261EBF4
:1004C0000E0101FA07F722FA06F3F1401F43C5E9CE
:1004D000007100263146BDE8F087C2F12003D84004
:1004E0000CFA02FC21FA03F3914001434FEA1C4746
:1004F0001FFA8CFEB3FBF7F007FB10360B0C43EA38
:10050000064300FB0EF69E4204FA02F408D91CEBE7
:10051000030300F1FF382FD29E422DD902386344E5
:100520009B1B89B2B3FBF7F607FB163341EA034185
:1005300006FB0EF38B4208D91CEB010106F1FF38D4
:1005400016D28B4214D9023E6144C91A46EA0046CB
:1005500038E72E46284605E70646E3E61846F8E65D
:100560004B45A9D2B9EB020864EB0C0E0138A3E7A6
:100570004646EAE7204694E74046D1E7D0467BE787
:10058000023B614432E7304609E76444023842E7FF
:10059000704700BFDFF834D0002103E00C4B5B58FC
:1005A000435004310B480C4B42189A42F6D30B4A85
:1005B00002E0002342F8043B094B9A42F9D303F0CE
:1005C000E3F91AF053FA00F0E5FE7047000003204B
:1005D000ECF20E08000000206C0100206C010020ED
:1005E000942F0120FEE700F0B7BC00F025BD704756
:1005F00010B5042104461AF0C1F9204610BD0000D0
:1006000038B50C4B0C4C18800C4B82201980636859
:10061000984740F6110398420AD1094D23682C608F
:10062000822098472B688220DB689847002038BDDD
:100630000120FCE7880100204C0000208A010020F6
:100640008C0100204FF4A071F020FFF7D9BF00000B
:10065000F7B5344D2B6804461B698220984780B259
:10066000208000284CD02B680DF106025B6901A99F
:1006700082209847BDF8063040F67462934241D913
:10068000ADF80620BDF80620C2F56762043292B2CA
:100690000A2A3DD90B23B2FBF3F2234B1B889A4263
:1006A00001D9013B9AB2BDF8043040F6B8318B4213
:1006B00030D8C3F571630E339BB20F21B3FBF1F356
:1006C0001A4909888B4201D94B1E9BB2184E194D0D
:1006D00030682F68834281B28CBF591AC91AB8B2E8
:1006E000BA428CBF101A801A89B280B2014405291F
:1006F000C8BF33603368C8BF2A6063802B68A3809B
:1007000003B0F0BDB32B9CBFB423ADF80630B9E7FE
:100710000022C8E7C3F56D6308339BB20E2BCCD81B
:100720000023D3E78C0100208A01002088010020EB
:10073000900100209401002037B568460D4614460C
:10074000FFF786FFBDF8000030B1BDF802302B6026
:10075000BDF804302360012003B030BD032821D848
:10076000DFE800F0020B12190F4B1A68B2FA82F29E
:10077000520904210D4803F09FBB0B4B5A68B2FA93
:1007800082F252090821F5E7074B9A68B2FA82F221
:1007900052091021EEE7044BDA68B2FA82F25209EC
:1007A0002021E7E7704700BF9801002000100240B9
:1007B000032821D8DFE800F0020B12190F4B1A684A
:1007C000003A18BF012204210D4803F075BB0B4B02
:1007D0005A68003A18BF01220821F5E7074B9A68CA
:1007E000003A18BF01221021EEE7044BDA68003A04
:1007F00018BF01222021E7E7704700BF98010020C1
:100800000010024003280DD8DFE800F00206080AB5
:100810000421054803F055BB0821FAE71021F8E749
:100820002021F6E7704700BF0010024008B50328FA
:1008300011D8DFE800F0020A0C0E0421074803F08B
:1008400035FB431E5842584108BD0821F6E71021E8
:10085000F4E72021F2E70020F3E700BF0010024098
:1008600070B5084D00240126E0B2FFF7DFFF18B194
:100870002B68012B18BF2E600134052C05F10405EF
:10088000F2D170BD98010020012380F8781080F823
:100890007930704700207047034B4164003918BF1E
:1008A00001211970704700BF9F240120002070476C
:1008B000836B0BB10846184770474FF6FF707047BF
:1008C000406803689B69184770477047704700008D
:1008D00070B5044600F050FC2368D3F88850044BF0
:1008E000D4E90F122046AC46BDE87040604700BF17
:1008F000000000D008B503680446D3F8803098475C
:10090000236820469B6F984700F0ECF82368204648
:100910001B6F9847292000F093FF00F0E3F823684D
:1009200020461B6F9847F8E710B5044608F0E4FB33
:1009300023682046D3F8AC30BDE81040184700F0DB
:100940000DBC00F011BC00F03DBC00F0E3BB00F0BA
:100950003DBC00F045BC00F0E7BB07F039BE10B568
:100960007C2104461AF00AF8204610BD90F87A302F
:100970001BB1406803681B681847184670470000A1
:1009800010B590F8341090F878400C4B8C421A78DF
:1009900009D03AB90A4A0B491488088810800C809B
:1009A00001221A7010BD002AFCD0054A054914889E
:1009B000088810800C800022F3E700BF98240120F3
:1009C000942401209624012070B50D46194635B9AE
:1009D000094B0A4A0A4840F2D22119F0FDFFC0E94A
:1009E0000F52084B003A18BF01221A700368BDE885
:1009F0007040D3F88C301847A8BB0108E0BB010851
:100A00002EBC01089E24012008B5094B1B888B428F
:100A100003D8084B1B88934205D9074B074A08485F
:100A20009E2119F0D9FF074B1980074B1A8008BD8A
:100A3000942401209624012073BC0108D6BC01082F
:100A40002EBC01089A2401209C240120012108B514
:100A50000022084605F05BFA0A4B186028B90A4BD9
:100A60000A4A28210A4819F0B7FF00220421012070
:100A700005F0F3FA074B186018B9074B034A2C210D
:100A8000F0E708BDAC010020F4BD01083DBE01083F
:100A90006CBE0108A8010020DBBE0108024B4FF02C
:100AA000FF31186805F07DBAAC010020014B1868D1
:100AB00005F0A2BAAC010020024B0021186805F035
:100AC00070BA00BFAC010020FFF7F0BF0348044933
:100AD000006800231A4605F0FBBA00BFA8010020F9
:100AE0000400002013B5084C00231A4601A9206811
:100AF00005F01EFB20684FF0FF33002201A905F02E
:100B000017FB02B010BD00BFA801002003685B6C9A
:100B100018470120704703689B6A184782B000237A
:100B200001930D4B1A6B42F400021A631A6B02F424
:100B300000020192019A1A6942F400021A611A69CC
:100B400022F400021A61054B054A1A61054B4FF069
:100B500080629A6002B0704700380240741400202E
:100B6000A90B000800E100E040F2EF307047000000
:100B7000054B0360054B4FF08062C3F88820BFF33C
:100B80004F8FBFF36F8F70479CC0010800E100E0FA
:100B900010B504464FF45A61FFF7EAFF204619F0FA
:100BA000EDFE204610BD0000024B1B68586803682C
:100BB0005B691847A024012070B5044625460A4BFE
:100BC0000C30002660602672667245F8203B602279
:100BD000294608F0CFFB04F55A63EE602435AB429A
:100BE000FBD1204670BD00BF9CC0010808B50B2991
:100BF0000BD8DFE801F01206100A0A0A0A080808F2
:100C00000808012008BD0520FCE7054B054A0648F9
:100C1000662119F0E1FE0020F4E70220F2E700BFB0
:100C20001DBF010838BF010882BF010808B50A29A5
:100C300009D8DFE801F010060E08080808060606C5
:100C40000600012008BD054B054A0648872119F01A
:100C5000C3FE0020F6E70220F4E700BF1DBF010835
:100C6000EFBF010882BF01082DE9F8434F7F0C4612
:100C700039468146FFF7BAFF94F81E800546414683
:100C80004846FFF7B3FF414606464846FFF7CEFF0A
:100C9000A18A628B424B521A1A649A61228B521AB1
:100CA0001A61E28A586342EA01425A642069626822
:100CB000D863DA60216894F81CC080294FEA0C627E
:100CC00026D010D8202945EA020461D040295FD0FF
:100CD00004295DD0324B2A4342F400324745DA61A1
:100CE0005AD0304A40E0B1F5807F07D0B1F5007F9F
:100CF000F0D142F4003242F0090203E042F4003243
:100D000042F00A02DA61E2681A625E6258612AE021
:100D1000A4682A4342F40032211DD962DA612278A4
:100D20005E62586142B1012A21D01F4B1F4A204800
:100D300040F2111119F050FEDA69618822F47F4205
:100D4000013922F0100242EA0122DA610120144B3B
:100D5000DA6942F02002DA61DA699206FCD41022E4
:100D60009A600028BDD0134A1A60BDE8F8836288F3
:100D7000D969541E21F47F4222F0100242EA042273
:100D8000BCF1FF0042F0100218BF0120DA61DEE77B
:100D900044F40034DC61B8E740F20122E4E700BF2C
:100DA00000B00240010201003AC0010854C001082D
:100DB00082BF01080102020070B50C46897FFFF76F
:100DC00035FFA68AE18A628B154B2569586341EA93
:100DD0000641921B5964DD631A642668E168082E97
:100DE0000DD19A611A615862207F0E4A42EA006270
:100DF000DA610D4A19625D61DD601A6070BD002222
:100E0000D8611A6148090A0A02F4784200F4FC60C9
:100E10000243C1F3C4010A439A63044AEDE700BFE9
:100E200000B00240090001000102020001020300BB
:100E30000120704738207047382303FB0100083039
:100E40007047382303FB01000830704701207047CA
:100E50004FF4077070474FF4077303FB010008302D
:100E600070474FF4077303FB0100083070470120FF
:100E700070471020704700EB01100830704700EBFE
:100E8000011008307047084601F0AABC10B5034BAA
:100E90000360044607F0F3F8204610BD54C1010872
:100EA00010B50446FFF7F2FF2046402119F066FD19
:100EB000204610BD10B5034B0360044607F0DFF871
:100EC000204610BD20C1010810B50446FFF7F2FF0F
:100ED00020464FF4097119F051FD204610BD000065
:100EE00010B5034B0360044607F0C9F8204610BD57
:100EF000ECC0010810B50446FFF7F2FF20461821A8
:100F000019F03CFD204610BD10B5084B03600446A7
:100F100000F51470FFF7BAFF04F12C00FFF7CAFFC9
:100F200004F11400FFF7DCFF204610BD88C1010862
:100F300008B50248FFF7E8FF08BD00BFB401002074
:100F400010B50446FFF7E0FF20464FF47E7119F01C
:100F500015FD204610BD00002DE9F34100F0DEFF35
:100F6000054600F0DFFF00240146234628462246BE
:100F700000940CF097F8254B254A264D1A60204620
:100F800002F0D0F824480BF0F5FF2B78BFF35B8F0D
:100F9000DB0735D4284619F0F3FC88B31F4C204BEF
:100FA000236004F5277604F1140004F12C0804F5FD
:100FB00014776060C4F80880E760266107F060F885
:100FC000184B6361404607F05BF8174BE362384605
:100FD00007F056F8154BC4F8503204F5247002F0AF
:100FE0000FF9224604F52471304602F0FFF830462E
:100FF00001F0F6FB0E4819F00DFD284619F0CCFC67
:101000000C4802B0BDE8F041FFF762BCFC240120AF
:10101000CC130020B001002008000020B401002003
:1010200088C10108ECC0010820C1010854C10108B1
:10103000310F0008501300200148FFF75BBC00BFD0
:101040005013002070B5224E224C234D234B2360B9
:101050003046FFF7B1FD284610F0F0FA204B21484A
:10106000DC6000224FF48071C3E912121E491A8617
:10107000C3E91A121D4999671D4983F858200B606E
:10108000F02101801B485A6601801B4883F87020BC
:101090004FF4A071C3E90422C3E90622C3E9082280
:1010A000C3E90A22C3E90E22C3E91022C3E91422CC
:1010B000C3E917225A67C3E9016501800F4801801F
:1010C0000F490A70012283F834200E4A1A6070BD5D
:1010D000B0050020AC050020D013002098BB01080B
:1010E00050130020942401200100000100000101A0
:1010F000A02401209A240120962401209C24012070
:101100009824012024BD01080148FFF731BD00BF2C
:10111000B0050020034B902283F85A2383F858230C
:10112000704700BF00E100E0094A0A49D3680A4855
:10113000C3F30A03013B9BB20B801169C1F30A019F
:10114000013901801364536B43F00103536370470B
:10115000006801405814002056140020014BD3F8B9
:10116000AC00704700680140024B0122C3F8AC108C
:101170005A6270470068014070B5044607F07DFA76
:1011800023685D6E09F0CCFA01462046A847236823
:10119000054AD3F888502046AC460023BDE870408D
:1011A000A2F51631604700BF00B004D007F04CBA7A
:1011B00090F84B3013B1024B01221A7007F050BA6D
:1011C0005414002007F00ABA07F06BBB034B4FF032
:1011D00080629A604FF080729A60704700E100E090
:1011E000084B4FF08062C3F88820BFF34F8FBFF3E6
:1011F0006F8F4FF08072C3F88820BFF34F8FBFF31B
:101200006F8F704700E100E010B5144C236823B3E2
:10121000134B144A1B6C11888B4213D1124B198843
:1012200003F03EFC226892F86A30013382F86A309B
:10123000FFF74CFC206807F05FFFBDE8104000207E
:10124000FFF78CBA03F02CFC206803681B6A9847F0
:10125000BDE810400020FFF7ABBA10BDA02401206C
:1012600000680140581400205614002007B5064BB2
:10127000ADF806001B68054801220DF1060104F0D7
:101280005BF903B05DF804FB10000020E4150020BA
:1012900073B5184E184C0421304602F007FE05467F
:1012A00070B9206804F073FF012809D84C238DF829
:1012B00007302068C8232A460DF1070104F008FF13
:1012C0000821304602F0F2FD054670B9206804F0AE
:1012D0005EFF012809D852238DF807302068C82303
:1012E0002A460DF1070104F0F3FE0A2004F003FE84
:1012F000D1E700BF001802406414002030B595B05B
:10130000102200210AA819F0F3FB1422002103A8DF
:1013100019F0EEFB00241D4B01941A6C42F0805230
:101320001A641B6C03F080530193019B184B0294C9
:101330001A6842F440421A601B6803F44043029367
:101340000122029B4FF48033CDE9082302254FF49C
:101350008003CDE90E5308214FF4A873CDE9101393
:1013600008A804231393129503F0B8FB0F23CDE9CB
:1013700003354FF4A0504FF48053CDE90603052107
:1013800003A8059403F088FD15B030BD0038024075
:101390000070004080B59AB002F004FBFFF7AEFF8A
:1013A000142200210DA8002419F0A2FBC34B0094C5
:1013B0001A6BC348C34D42F010021A631A6B02F055
:1013C00010020092009A01941A6B42F020021A63F4
:1013D0001A6B02F020020192019A02941A6B42F0F9
:1013E00080021A631A6B02F080020292029A03943E
:1013F0001A6B42F004021A631A6B02F004020392A1
:10140000039A04941A6B42F001021A631A6B02F0F9
:1014100001020492049A05941A6B42F002021A63C4
:101420001A6B02F002020592059A06941A6B42F0BA
:1014300040021A631A6B02F040020692069A079461
:101440001A6B42F008021A631B6B03F00803079340
:1014500022463C21079B02F02FFD9B482246042197
:1014600002F02AFD224699484FF4405102F024FD33
:1014700001264FF003083C239148CDF840800DA988
:1014800002274FF0040ACDE90D360F9402F028FC34
:101490008D480F940DA9CDE90DA6109702F020FC00
:1014A0004FF4405389480DA9CDE90D36CDE90F47DA
:1014B00002F016FC86480F940DA9CDE90D6402F0E8
:1014C0000FFC0DA90C2383480F96CDE90D3402F0D3
:1014D00007FC8148814B036002F0F6FA804A814B99
:1014E0002C62C5E9002328464FF48043C5E9043443
:1014F000C5E90244C5E9064402F0D6FE102128469B
:1015000003F012F92146284603F02DF97648774971
:1015100084624FF48273C0E900134FF400751823FE
:10152000C0E906530A23724DC362C0E90244C0E910
:101530000444C0E9084403F0A3FF6E4B0D974FF03D
:10154000100CC5E900364023C5E904C34FF4C0734D
:10155000C5E906344FF40063C5E908344FF400537D
:10156000AB620DA907232846CDE90E3ACDE9103824
:101570004FF00809C5E9024ACDE9127703F080FE71
:101580004FF6FF7209A92846CDE90A9608940996F4
:101590000C9403F095FE304602F030FA4FF6FF72DD
:1015A00009A92846CDE90979CDE90B6403F088FE45
:1015B0004FF6FF7209A92846CDE90989CDE90BA4A8
:1015C00003F07EFE4FF40C730893089B0C934FF6C8
:1015D000FF7209A92846CDE909A90B9603F070FE10
:1015E00040F26A51284603F089FE342221460DEB71
:1015F000020019F07DFA404D404BAC86C5E900343D
:101600000923C5E905361D2340F20D1EC5E907383B
:1016100040F24313C5E909E3284640F2471340F27C
:101620001718C5E90B83C5E902442C6185F83640DB
:1016300003F03EF9FF21F022CDE912144FF4806A45
:1016400005214FF4A073CDE90E24CDE914A1CDE915
:1016500016420DA922462846CDE91037284D189389
:101660000D94ADF864408DF8664003F0ECF9254B1D
:101670002B601B6898472B68234DDB689847234BEA
:10168000C5E90A47C5E90C442846C5E90034C5E95F
:10169000027402F029FA3146284602F0DDFAFEF71C
:1016A000A2FF04F0B3FB1A4A3146484604F0D5FCC9
:1016B000184B194A1860214630E000BF003802403C
:1016C00000100240B414002000080240000C024048
:1016D00000000240001802406C140020003002405C
:1016E000005C0040A0860100E4150020005001408D
:1016F000B0150020400100A008150020006801403E
:1017000060140020140000207414002000B0024077
:10171000D4C1010864140020ECC10108074804F09A
:10172000A1FB074B074A18602146074804F09AFBC3
:10173000064B186004F07CFBFEE700BF9112000826
:1017400068140020B0C10108EB0500085C140020FB
:10175000704770477FB5094B8DF817201B680293BF
:101760000DF117020123009201930A460146044835
:1017700002F042FE07B05DF804FB00BF0C00002041
:10178000B41400207FB500238DF81730084B1B6878
:1017900002930A4601230DF11701009101930146BE
:1017A000044802F0B9FE9DF8170007B05DF804FB8D
:1017B0000C000020B41400201FB5084C24680092CF
:1017C000CDE901340A4601230146054802F0A4FE92
:1017D000003818BF012004B010BD00BF0C0000206D
:1017E000B414002002F00AB908B50648002204210A
:1017F00002F062FBBDE8084002480122042102F029
:101800005BBB00BF0008024038B50B4D0446012207
:101810000A484FF4005102F04FFB002204212846F1
:1018200002F04AFB2046FFF721FD28460122BDE8D1
:101830003840042102F040BB00080240000C024086
:1018400038B50B4D044600220A484FF4005102F00F
:1018500033FB00220421284602F02EFB2046FFF72E
:1018600005FD28460122BDE83840042102F024BBD2
:1018700000080240000C0240F7B5144E144F054614
:101880000C4630460022042102F016FB00224FF4E1
:101890000051384602F010FB2846FFF7E7FC0D4BDD
:1018A0000D481B68224601A903F0E8FF38460122D3
:1018B0004FF40051019C02F0FFFA3046012204214E
:1018C00002F0FAFA204603B0F0BD00BF0008024063
:1018D000000C024010000020E415002002F08EB839
:1018E0000268034B9A4201D102F076B8704700BFFC
:1018F000001000407047000082B00E4B00220092A2
:10190000596C41F480415964596C01F48041009153
:1019100000990192196C41F0805119641B6C03F01D
:1019200080530193019B0F216FF0010002B002F080
:101930008BB800BF003802400268094B9A4282B05F
:101940000BD100230193074B1A6B42F480521A63A8
:101950001B6B03F480530193019B02B0704700BFDF
:10196000003002400038024007B50F4B02689A422F
:1019700016D10022A3F5F0430192196B41F4000146
:1019800019631B6B03F40003019305215A20019B8B
:1019900002F05AF85A2003B05DF804EB02F086B862
:1019A00003B05DF804FB00BF00B002402DE9F04336
:1019B000044689B01422002103A819F099F822687E
:1019C000244B9A4243D1244C244800250095236B94
:1019D00043F004032363236B03F004030093009B91
:1019E0000195236B43F001032363236B03F0010391
:1019F0000193019B4FF012094FF400734FF001085F
:101A00000327042603A9CDE90339CDE90587079605
:101A100002F066F94FF480731148079603A9CDE9E7
:101A20000339CDE9058702F05BF90295236C43F495
:101A300000032364236C03F400030293029B236AD4
:101A400043F400032362236A23F40003236209B0F2
:101A5000BDE8F083005C004000380240000802400E
:101A600000000240F0B599B004461422002107A8F6
:101A700019F03EF830220DEB0200002119F038F881
:101A800022685E4B9A4240F0B78008230C93C02333
:101A90001093042312930CA84FF40033159303F012
:101AA000C5FA08B1FFF726FF554B564800240094AD
:101AB0005A6C42F080625A645A6C02F08062009262
:101AC000009A01941A6B42F020021A631A6B02F01A
:101AD00020020192019A02941A6B42F001021A63E9
:101AE0001A6B02F001020292029A03941A6B42F0FE
:101AF00002021A631A6B02F002020392039A049420
:101B00001A6B42F040021A631A6B02F04002049210
:101B1000049A05941A6B42F004021A631A6B02F0DD
:101B200004020592059A06941A6B42F008021A63A1
:101B30001B6B03F00803069302250E26069B0B96EB
:101B40004FF4806307A9CDE90735CDE9094502F0D7
:101B5000C7F841F658032C480B9607A9CDE907357D
:101B60000927CDE9094502F0BBF8032327480B9765
:101B700007A9CDE90735CDE9094502F0B1F84FF4E1
:101B8000706322480B9607A9CDE90735CDE90945D1
:101B900002F0A6F84FF40C631D480B9607A9CDE997
:101BA0000735CDE9094502F09BF8C02319480B968B
:101BB00007A9CDE90735CDE9094502F091F80823D9
:101BC00015480B9607A9CDE90735CDE9094502F07F
:101BD00087F84FF4A0530E480B9707A9CDE90735B6
:101BE000CDE9094502F07CF858202246052101F094
:101BF0002BFF582001F05AFF19B0F0BD00680140DA
:101C0000003802400014024000000240000402407C
:101C10000018024000080240000C024010B50446C3
:101C200088B01422002103A818F062FF2268144B28
:101C30009A4223D103F56843002101915A6C11485F
:101C400042F480125A645A6C02F480120192019A92
:101C500002911A6B42F020021A631B6B03F02003FF
:101C60000293029B4FF4607202230321CDE9032308
:101C70000523CDE9061303A902F032F808B010BD20
:101C800000500140001402402DE9F04186B00023CD
:101C900003932B4B1C68002C4FD14FF00108C3F865
:101CA0000080284B00949A6B274842EA08029A6306
:101CB0009B6B03EA08030093022703260C25009B75
:101CC00001A94FF63F03CDE90137CDE9046502F0E4
:101CD00007F81E48059501A9CDE90187CDE903461E
:101CE00001F0FEFF48F233131948059501A9CDE92B
:101CF0000137CDE9034601F0F3FF4FF68373154832
:101D0000059501A9CDE90137CDE9034601F0E8FFCA
:101D10004CF203731048059501A9CDE90137CDE9CF
:101D2000034601F0DDFF60230C48059501A9CDE9CC
:101D30000137CDE9034601F0D3FF06B0BDE8F081DD
:101D40003C16002000380240001402400008024007
:101D50000018024000100240000C02400004024043
:101D600030B5014689B00022362001F06DFE3620E4
:101D700001F09CFE0025154B02951A6C144C42F0A4
:101D800010021A641B6C03F01003029301A903A84C
:101D9000029B03F02DF903F01BF90E4B236040F278
:101DA000E733E36040000C4BB0FBF3F001386060B8
:101DB00020462561A56003F04DFF20B9204603F0C1
:101DC00003FE09B030BD0120FBE700BF0038024030
:101DD000401600200010004040420F007047FEE710
:101DE000FEE7FEE7FEE77047014803F02BBE00BFA9
:101DF00040160020014802F0C9BD00BF08150020B0
:101E0000014801F09FBE00BF7414002013B50B4CB5
:101E1000206804F0BCF9012809D841238DF8073067
:101E20002068C82300220DF1070104F051F90120B8
:101E300002B0BDE8104002F04FB800BF64140020AB
:101E40000120704708B518F0F9FD162303604FF024
:101E5000FF3008BD08B518F0F1FD16230360FEE75A
:101E600070B50D4614460E46731B9C4201DC20469D
:101E700070BDAFF3008006F8010BF5E770B50D46B5
:101E800014460E46731B9C4201DC204670BD16F8BA
:101E9000010BAFF30080F5E74FF0FF3070474FF4D0
:101EA00000534B60002070470120704700207047AE
:101EB0000A4A116808B5034609B909491160106852
:101EC000694603448B4206D918F0B8FD0C23036021
:101ED0004FF0FF3008BD1360FCE700BF88160020FC
:101EE000982F0120704710B50421044618F046FDD4
:101EF000204610BD012908B506D0022908D059B9DD
:101F000001F04EF9006808BD01F04AF94068FAE7AF
:101F100001F046F98068F6E70020F4E700487047D2
:101F200024C201080920704713B5002451B1036889
:101F300001948DF8034001AA9C680DF10303A047AA
:101F400002B010BD0846FBE7C0897047008A7047A1
:101F5000C088704780887047807A00F07F007047A3
:101F6000807AC00970470020704781807047C18027
:101F700070470181704741817047704770477047D3
:101F80007047704710B4C4880368121B84885B6D67
:101F9000091B12B25DF8044B09B218474FF6FF73E4
:101FA00083814FF0FF3303621368C3611060704791
:101FB0007047704700F598730868496803C3704715
:101FC00090F825201AB190F8242002B118607047CB
:101FD000704770474160704710B50022B1F9084062
:101FE000B1F90A10028042808480C18010BD704720
:101FF00070470000064BC0F84C310023C0F8503148
:1020000000F5A273C0F84801C0F84031704700BF26
:10201000AD22000801230372704770477047704774
:102020007047704701464068036810315B6E18477F
:1020300001464068036810311B6E1847704701461F
:102040004068036810315B6E184770B505464068FC
:102050000368DB69984704464CB1A188AB89C91A6B
:10206000236820461B6B09B29847A469F4E76868A7
:10207000036805F110011B6EBDE87040184710B4ED
:10208000C26841685410034601EB6200D20748BFA2
:102090000A599B685DF8044B48BFD35818474368FA
:1020A0002BB183682BB9C06800F001007047184657
:1020B00070470120704710B50C21044618F05EFCF3
:1020C000204610BD10B51021044618F057FC2046DC
:1020D00010BD10B54FF4AE71044618F04FFC204609
:1020E00010BD10B53821044618F048FC204610BD3C
:1020F00010B52821044618F041FC204610BD10B54B
:102100003821044618F03AFC204610BD10B508F0FE
:1021100007FB0368BDE81040DB6B184773B5044646
:10212000807A637A0130C0B29842A07205D9012347
:1021300023720023A37202B070BDB4F90C20B4F96D
:102140000E60002109F0E4FF10F0010283B235D1E6
:10215000E081E589A37AAD1B012BADB206D11B4B03
:102160001B781BB108F0DCFA08F0E0FA184A0023EB
:102170001288ADF80230E3891A445B42ADF80430AE
:10218000144BADF800201B88ADF8063008F0C8FAF3
:10219000036802AA12E906001B6C9847606803688E
:1021A000DB6998470446002CC5D0A18823682944E0
:1021B00020461B6B09B29847A469F4E74FF6FF71FC
:1021C0000028D8BF0A461344E381C2E79E240120B9
:1021D000942401209624012090F8252012B1036850
:1021E0005B6918477047000037B50446807A637A08
:1021F0000130C0B29842A07205D901232372002396
:10220000A37203B030BDB4F90C20002109F080FFA7
:1022100010F0010283B228D1E081184B18481988C8
:10222000258BE389B0F90000ADF80600CA1A606892
:102230002B445B1A12B2ADF8043003682283ADF868
:10224000002000221B69ADF8022069469847A37A56
:10225000012BD6D10B4B1B78002BD2D008F060FAA3
:1022600003B0BDE8304008F061BA4FF6FF710028B6
:10227000D8BF0A461344E381CFE700BF942401206E
:10228000962401209E24012010B50446D0F8400178
:1022900058B10368DB68984738B1D4F84001036847
:1022A0009B6898470023C4F8403110BD2DE9F14FD9
:1022B000D0E9555A0746A86803681B6A9847B328AF
:1022C00005D8464B464AA321464818F085FB686866
:1022D00003681B6A98470F2803D8434B404AA42140
:1022E000F2E7E86803681B6A98470B2803D83F4B5E
:1022F0003B4AA521E8E708F013FADFF8F89004302C
:1023000008F05BFAD9F8000010B10368DB68984761
:10231000D9F8000010B103681B689847DFF8D8802F
:10232000D8F8000010B103685B699847D7F83C0102
:1023300010B103685B689847D8F8000010B10368D3
:102340001B689847D7F83C0110B103689B68984711
:10235000E868036800215B6A98474FF0000B244B44
:1023600003600446C0F804B080F808B0A8680368A9
:1023700059465B6A9847064600F08AFF686803681A
:1023800059465B6A98473146054600F057FFC9F841
:102390000040C7F83C51C8F80060E5B12B1DCAF8F1
:1023A00008303368C5F808A03046DB68F563984705
:1023B0002B6828461B6898472146304609F0A2FE44
:1023C000236820461B69984723685B69204601B053
:1023D000BDE8F04F18472B46E1E700BFD8C201081F
:1023E00066C301086AC40108B1C4010854C50108E4
:1023F00000C90108E0240120DC2401202DE9F0417E
:102400001D460368BDF918701B6B044616469847B5
:102410002368314620465B6B98472368294620464F
:102420009B6B9847236839462046DB6BBDE8F0413B
:10243000184700002DE9F74FD0E955BA0746DBF8F9
:10244000080003681B6A9847B32805D8554B564ABD
:10245000A321564818F0C0FADBF8040003681B6A91
:1024600098470F2803D8524B4F4AA421F1E7DBF8D5
:102470000C0003681B6A9847372803D84D4B4A4A1B
:10248000A521E6E708F04CF9DFF83C91043008F0AC
:1024900094F9D9F8000010B10368DB689847D9F8BF
:1024A000000010B103681B689847DFF82081D8F856
:1024B000000010B103685B699847D7F83C0110B180
:1024C00003685B689847D8F8000010B103681B6880
:1024D0009847D7F83C0110B103689B689847DBF830
:1024E0000C00036800215B6A9847334B03604FF48C
:1024F000A05303814FF480734363304B0361304A30
:10250000304BB2F90020B3F90030838100254560DB
:102510008572C581C0E90555C0E90755C0E909556F
:10252000C0E90B5529460446009210302A46FFF7B1
:1025300065FFDBF80800036829465B6A9847064692
:1025400000F0A6FEDBF80400036829465B6A9847A2
:102550003146054600F072FEC9F80040C7F83C510C
:10256000C8F80060E5B12B1DCAF808303368C5F81B
:1025700008A03046DB68F56398472B6828461B683F
:1025800098472146304609F0BDFD236820461B6967
:10259000984723685B69204603B0BDE8F04F1847B1
:1025A0002B46E1E7D8C20108F7C501086AC4010853
:1025B000B1C4010854C5010848C901082CC8010864
:1025C0009624012094240120E0240120DC24012011
:1025D0002DE9F74FD0E955BA0746DBF80800036844
:1025E0001B6A9847B0F5077F05D2564B564AA32180
:1025F000564818F0F1F9DBF8040003681B6A9847A5
:102600000F2803D8524B504AA421F1E7DBF80C0005
:1026100003681B6A9847372803D84E4B4A4AA521BE
:10262000E6E708F07DF8DFF84091043008F0C5F8DF
:10263000D9F8000010B10368DB689847D9F80000AA
:1026400010B103681B689847DFF82081D8F80000B4
:1026500010B103685B699847D7F83C0110B1036873
:102660005B689847D8F8000010B103681B6898476A
:10267000D7F83C0110B103689B689847DBF80C0061
:10268000036800215B6A9847334B03604FF4A05303
:1026900003814FF480734363304B0361304B1B88DD
:1026A0005A4282812F4A0025B2F900204560857286
:1026B000C581C0E90555C0E90755C0E90955C0E91C
:1026C0000B552946044600921BB22A461030FFF7EC
:1026D00095FEDBF80800036829465B6A98470646C2
:1026E00000F024FEDBF80400036829465B6A984783
:1026F0003146054600F0EAFDC9F80040C7F83C51F4
:10270000C8F80060E5B12B1DCAF808303368C5F879
:1027100008A03046DB68F56398472B6828461B689D
:1027200098472146304609F0EDFC236820461B6996
:10273000984723685B69204603B0BDE8F04F18470F
:102740002B46E1E7D8C201080DC701086AC4010899
:10275000B1C4010854C5010824C901082CC80108E6
:102760009424012096240120E0240120DC2401206F
:10277000044B1B6893F858200AB1D86C00B99868CC
:10278000704700BFA024012070B504460D461646D0
:1027900008F0B0F80E4A14600E4A22600E4A002378
:1027A000C4E95123C4E95333C4E94F330B4B1868D0
:1027B000036801219B68C4E955659847FFF7D8FF76
:1027C00010F06BFDFFF7D4FF10F0E2FD204670BD66
:1027D000EC240120ACC8010894C80108A024012001
:1027E000064BC0F84C310023C0F8503100F5A273FD
:1027F000C0F84801C0F84031704700BFAD22000862
:10280000064BC0F84C310023C0F8503100F5A273DC
:10281000C0F84801C0F84031704700BF35240008B7
:10282000064BC0F84C310023C0F8503100F5A273BC
:10283000C0F84801C0F84031704700BFD1250008FA
:10284000406A7047806A704770478B88C0690A6821
:10285000DB0A50F823001044704710B5C2B1137B57
:10286000B3B1547BD27A240204F4E0641443026AC4
:1028700098B202EB840213888B4202D192F90200D3
:1028800010BD05D8013880B204320028F3D1F7E733
:102890000020F5E710B52C21044618F06FF820460B
:1028A00010BD000030B58BB00446BDF860500895EF
:1028B000BDF85C5007959DF8505006959DF84C501A
:1028C00005959DF8485004959DF8445003959DF852
:1028D000405002959DF83C500195BDF83850009548
:1028E00009F06AF8064B2360159BE361169B23628F
:1028F000199B63621A9BA36220460BB030BD00BFD8
:102900006CC901087047704770477047704770473F
:102910007047704730B4C26844685510034604EBF2
:102920006200D20748BF62599B6830BC48BFD35889
:10293000184743682BB183682BB9C06800F00100C9
:102940007047184670470120704710B510210446A3
:1029500018F014F8204610BD10B5B021044618F048
:102960000DF8204610BD6C30884208B505D107F03F
:10297000D7FEBDE80840FFF753BF08BD70B5036838
:1029800004461B6B154698472368294620465B6B17
:10299000BDE8704018470000F7B50446254609F029
:1029A00005FA0022334BE26345F8403B324B226686
:1029B000C4E910324FF48073A4F86430FF2384F824
:1029C000663040F20113A4F890302C4BE3664FF6CA
:1029D000FF73A4F89A30A4F89C3084F89E30284BFA
:1029E000A266C4E92834274BC4F89420114628462F
:1029F000C4E91222C4E91422C4E91622C4E91C2243
:102A0000C4E91E22C4E92022C4E9222284F89820C5
:102A1000C4E92A32FFF7B2FF2846F021FFF7A9FAEE
:102A200028464FF4A071FFF7A6FA271D4FF07F4309
:102A300004F16C06A3662946384605F033FB3046A0
:102A400077221421FFF79AFF032301AA6946304633
:102A5000ADF80030ADF8043006F0DEFC04F1A00360
:102A60003846C4F89430314605F01CFB204603B0CC
:102A7000F0BD00BFE4C9010818CF010880CF0108EC
:102A8000CCC9010867290008806A70477047704701
:102A900070477047704730B4C268446855100346A9
:102AA00004EB6200D20748BF62599B6830BC48BF44
:102AB000D358184743682BB183682BB9C06800F01E
:102AC00001007047184670470120704790F82D307C
:102AD00080F8603070470146383091F82C3013B1DF
:102AE000363106F066BD3431FBE710B5642104468B
:102AF00017F044FF204610BD10B51021044617F012
:102B00003DFF204610BD10B54FF40571044617F087
:102B100035FF204610BD10B50446006B50B1036868
:102B2000DB68984730B1206B036821469B68BDE89D
:102B30001040184710BD0B7970B590F82C60044612
:102B40000D469BB98EB9B3FA83F35B0984F82C3038
:102B500023682046D3F88C309847236820465B6969
:102B6000984716B12B79012B03D070BD002EFCD0F5
:102B7000E9E723682046D3F88830BDE8704018475D
:102B800000F5BA738B4210B5044609D107F0C8FDB1
:102B9000FFF736FE23682046DB6ABDE81040184781
:102BA00010BD0000074A02600022C0E90122C0E90E
:102BB0000322C0E90522C0E907224FF48072828413
:102BC000704700BFB4D001080B882DE9F04183861F
:102BD0001388B0F90850C3860446104690460AF0A0
:102BE00075FAB4F90A30074603EBD3734046C3F3D2
:102BF0004F060AF09FFA05EBD575C5F34F0500EBBC
:102C0000D07007EBD777A6EB6002A5EB670704F15E
:102C1000380039B212B2FFF7B1FE23682046D3F86C
:102C20008C30BDE8F041184738B5262204460D46E1
:102C3000002117F05DFF2046FFF7B4FF064B23602D
:102C40002B88E384FF23204684F82830294606F0A9
:102C5000B0FC204638BD00BFF4CF01082DE9F04F8D
:102C60002DED048B044685B02746002509F09EF81B
:102C70009B4BE56347F8403B26222946384617F030
:102C800037FF3846FFF78EFF964B236404F16C0B39
:102C9000FF234FF6FF7604F1980A84F8663003A903
:102CA000A5665846ADF80C60FFF7BEFF03A9504675
:102CB000ADF80C60FFF7B8FF04F1C40303A9184690
:102CC00008EE103AADF80C60FFF7AEFF04F1F00328
:102CD00003A9184608EE903AADF80C60FFF7A4FF80
:102CE00004F58E7303A9184609EE103AADF80C608E
:102CF000FFF79AFF04F5A47304F5BA7803A9184600
:102D000009EE903AADF80C60FFF78EFF4046FFF7F2
:102D100049FF4FF47F43A4F8A0314FF0010384F83A
:102D20009831714BC4F8743104F5D6794FF0FF3304
:102D3000C4F8A83103A9C4F89C51C4F8A45148466A
:102D4000ADF80C30FFF770FF4946404604F5EC79CA
:102D500005F0A8F903A94846ADF80C60FFF764FF39
:102D6000624BC4E98134624BC4E983354FF4A073EC
:102D70002A46009329463846F023261DFFF73EFBDE
:102D80004FF07F43A3663946304605F08BF92A465B
:102D900029465846FFF7F2FD082303A95846ADF827
:102DA0000C3006F006FC5946304684F8915005F088
:102DB00079F92A4629465046FFF7E0FD072303A983
:102DC0005046ADF80C3006F0F4FB5146304684F81E
:102DD000BD5005F067F92A4618EE100A2946FFF79C
:102DE000CDFD062318EE100A03A9ADF80C3006F04D
:102DF000E0FB18EE101A304684F8E95005F052F95D
:102E00002A4618EE900A2946FFF7B8FD052318EE6A
:102E1000900A03A9ADF80C3006F0CBFB18EE901A1F
:102E2000304684F8155105F03DF92A4619EE100A8E
:102E30002946FFF7A3FD042319EE100A03A9ADF8F4
:102E40000C3006F0B6FB19EE101A304684F84151EA
:102E500005F028F9A02219EE900A5F21FFF78EFDF8
:102E6000022319EE900A03A9ADF80C3006F0A1FB7D
:102E700019EE901A304605F015F903AA02A940464A
:102E8000ADF80850ADF80C50FFF79EFE04F5017345
:102E9000C4F8A431202300934FF48D724046C4F847
:102EA000B051CC21FFF7AAFA4146304605F0FAF8B6
:102EB000142248463F21FFF761FD4FF0010303A9AB
:102EC0004846ADF80C3006F074FB3046494605F034
:102ED000E9F8204605B0BDEC048BBDE8F08F00BFDB
:102EE000D0CA010818CF010818CA0108B8CA0108D9
:102EF000812B00087047000030B5164D2C78BFF3C9
:102F00005B8F14F001048FB020D1284617F038FDF4
:102F1000E0B13F230993104B0893104B104911481F
:102F20000A940122CDE906430423CDE903320A23A2
:102F30000093CDE90B44CDE901440594FFF7B2FCC1
:102F4000094817F067FD284617F026FD05480FB021
:102F500030BD00BF8C16002040D701084CD70108B7
:102F600010D7010890160020F52E000870470000C9
:102F700030B5164D2C78BFF35B8F14F001048FB081
:102F800020D1284617F0FCFCE0B13F230993104BF9
:102F90000893104B104911480A940122CDE90643C9
:102FA0000423CDE9033214230093CDE90B44CDE98A
:102FB00001440594FFF776FC094817F02BFD2846DD
:102FC00017F0EAFC05480FB030BD00BFBC1600206A
:102FD00044D7010850D7010820D70108C0160020A7
:102FE0006D2F00087047000030B5164D2C78BFF3E8
:102FF0005B8F14F001048FB020D1284617F0C0FC7D
:10300000E0B13F230993104B0893104B104911482E
:103010000A940122CDE906430423CDE90332282393
:103020000093CDE90B44CDE901440594FFF73AFC48
:10303000094817F0EFFC284617F0AEFC05480FB022
:1030400030BD00BFEC16002048D7010854D7010856
:1030500030D70108F0160020E52F00080020704747
:10306000002070470EB403B503AB002153F8042BC6
:10307000019308F0C9FA02B05DF804EB03B07047A1
:103080000CB407B504AB53F8042B019308F0BCFA59
:1030900003B05DF804EB02B070470000436C10B55C
:1030A000044673B3038F2BB9184B194AC52119482D
:1030B00017F092FCC38E00EB43035B8C0BB309F05B
:1030C0001EFD238F012B03D8134B144ACB21EEE7AF
:1030D000E28E531C9BB2092B194688BFA3F10A014B
:1030E00004EB410140F63F10498C814209D10A2B83
:1030F00004EB420228BF002304EB4303508C5884A6
:1031000051842046BDE8104009F0FCBB00CB01080B
:1031100009CB0108B4CB0108FECB01080CCC010897
:1031200009F0B7BB38B518BB124B13481B681349DD
:10313000B3B11A689C681A4402605A681A440A605B
:103140001C440F4B00221A8000F02AF8054600F0BC
:1031500025F80C4B1C600C4B1D600C4B188007E0D5
:103160000B4B03600B4B0B600B4B1C68002CE8D126
:1031700038BD00BF1C170020201700202417002096
:1031800028170020F0240120F8240120F424012035
:103190005CD7010858D7010864D7010800207047A0
:1031A000004870472C17002010B5FFF7E1FE044CD3
:1031B0002060FFF719FF6060FFF79EFEA06010BD62
:1031C0002C170020704710B54FF4AE71044617F06D
:1031D000D5FB204610BD10B50446D0F8580100F0CC
:1031E00015F82046BDE8104007F044BB10B5044672
:1031F000FFF7CAFA014B2360204610BDE8CC010856
:1032000000225F2102608180826070470368013381
:103210000360704781807047B0F9040070477047C1
:1032200004387047704710B51021044617F0A6FB0C
:10323000204610BDA0F10400F5E7000010B5002203
:103240008260044AC16002F10804203204604260D6
:1032500010BD00BF34CD01087047D0F8B030013345
:10326000C0F8B0307047000010B5034B036004464F
:10327000FFF74DFB204610BD64CD010810B5044694
:10328000FFF7F2FF2046B42117F078FB204610BD6F
:1032900010B50446FFF780FB034B23600023C4F8FE
:1032A000B030204610BD00BF64CD0108FFF730BB31
:1032B000704704387047704710B51021044617F066
:1032C0005DFB204610BDA0F10400F5E710B500221B
:1032D0008260044AC16002F1080420320460426046
:1032E00010BD00BF90CD01088068FFF793BF8068D4
:1032F000FFF792BFB0F91412C06BFFF7F5BF0000E3
:1033000010B5034B03600446FFF7C1FB204610BD18
:10331000C0CD010810B50446FFF7F2FF20464FF478
:10332000077117F02BFB204610BD000010B50446B6
:10333000FFF794FC034B23600023C4F818322046A7
:1033400010BD00BFC0CD010810B50446C06BFFF72B
:10335000CEFFA4F814022046FFF79AFBB4F814320B
:10336000A4F84C310E23C4F8DC3110BDD0F818326B
:1033700073B501330A21B3FBF1F201FB1232023AB9
:103380000446C0F8183200210120072A05D8DFE8DA
:1033900002F03A3A3F3F4444494984F8410184F8F5
:1033A00091105A004FF4A071B2FBF1F301FB13220C
:1033B00003F00303C3EB0313224DA4F8DE219B00AB
:1033C0000F3300262868A4F8DC318DF8076002F07E
:1033D000DEFE98B14FF0FF33286832460DF1070149
:1033E00002F0A6FE9DF807304C2B20D1B4F84C31EA
:1033F000033B1BB223EAE373A4F84C31201D08F011
:103400002DFA02B070BD84F8150184F84111C8E7A7
:1034100084F8E90084F81511C3E784F8BD0084F846
:10342000E910BEE784F8910084F8BD10B9E7522B8B
:10343000E4D1B4F84C3103331BB2B42BA8BFB4238E
:10344000DAE700BF64140020F02070474FF4A0704A
:1034500070472920FEF7F4B92820FEF7F1B908B526
:10346000FEF7C2F9CA20FEF7EBF9C320FEF7CCF94C
:103470000820FEF7C9F95020FEF7C6F9CF20FEF765
:10348000DFF90020FEF7C0F9C120FEF7BDF93020BA
:10349000FEF7BAF9ED20FEF7D3F96420FEF7B4F990
:1034A0000320FEF7B1F91220FEF7AEF98120FEF7F6
:1034B000ABF9E820FEF7C4F98520FEF7A5F9002056
:1034C000FEF7A2F97820FEF79FF9CB20FEF7B8F9B6
:1034D0003920FEF799F92C20FEF796F90020FEF727
:1034E00093F93420FEF790F90220FEF78DF9F720CA
:1034F000FEF7A6F92020FEF787F9EA20FEF7A0F9EB
:103500000020FEF781F90020FEF77EF9B120FEF7DA
:1035100097F90020FEF778F91B20FEF775F9B62021
:10352000FEF78EF90A20FEF76FF9A220FEF76CF97C
:10353000C020FEF785F91020FEF766F9C120FEF7DE
:103540007FF91020FEF760F9C520FEF779F94520D4
:10355000FEF75AF91520FEF757F9C720FEF770F964
:103560009020FEF751F93620FEF76AF9C820FEF7E1
:103570004BF9F220FEF764F90020FEF745F9B02080
:10358000FEF75EF9C220FEF73FF9B620FEF758F9C4
:103590000A20FEF739F9A720FEF736F92720FEF7B3
:1035A00033F90420FEF730F92A20FEF749F900200C
:1035B000FEF72AF90020FEF727F90020FEF724F98C
:1035C000EF20FEF721F92B20FEF73AF90020FEF755
:1035D0001BF90020FEF718F90120FEF715F93F202E
:1035E000FEF712F9F620FEF72BF90120FEF70CF991
:1035F0000020FEF709F90620FEF706F92C20FEF759
:103600001FF9C820FEF76AF92620FEF719F90120F4
:10361000FEF7FAF8E020FEF713F90F20FEF7F4F8B2
:103620002920FEF7F1F82420FEF7EEF80C20FEF733
:10363000EBF80E20FEF7E8F80920FEF7E5F84E203B
:10364000FEF7E2F87820FEF7DFF83C20FEF7DCF822
:103650000920FEF7D9F81320FEF7D6F80520FEF76B
:10366000D3F81720FEF7D0F81120FEF7CDF8002090
:10367000FEF7CAF8E120FEF7E3F80020FEF7C4F8F1
:103680001620FEF7C1F81B20FEF7BEF80420FEF757
:10369000BBF81120FEF7B8F80720FEF7B5F8312087
:1036A000FEF7B2F83320FEF7AFF84220FEF7ACF891
:1036B0000520FEF7A9F80C20FEF7A6F80A20FEF771
:1036C000A3F82820FEF7A0F82F20FEF79DF80F2082
:1036D000FEF79AF81120FEF7B3F8C820FEF7FEF8BF
:1036E0002920FEF7ADF8BDE808402C20FEF7A8B869
:1036F00008B5FEF779F80321D320FEF7BDF880B2B4
:1037000008BD10B5C4B2022203212046FEF722F8FC
:103710000A20FEF767F8204600220321FEF71AF878
:10372000BDE810400220FEF75DB838B50446E4B2AB
:10373000FEF70EF800212046FEF724F80121054689
:103740002046FEF71FF840EA052080B238BD10B5CC
:10375000C4B240212046FEF715F8030607D54C21D8
:103760002046FEF70FF8003818BF012010BD0122D7
:103770004B212046FDF7EEFF204600224B21FDF7AE
:10378000E9FF0020F2E773B50423C4B20E461546E4
:10379000D7210DEB03022046FEF70EF8019B1BBA62
:1037A0001A0DC3F30B23328020462B8001224B21BC
:1037B000FDF7D0FF00224B212046FDF7CBFF02B0E2
:1037C00070BD000010B50A4B1A78904204460DD027
:1037D000597888420AD00AB141B901229C54FDF7B8
:1037E000B7FF2046BDE81040FFF78BBF10BD00BFFC
:1037F0003817002010B5C4B209212046FDF7C2FFDA
:1038000040F00100C2B209212046BDE81040FDF79A
:10381000A1BF10B5C4B209212046FDF7B3FF0921AD
:1038200000F0FE022046BDE81040FDF793BF38B51A
:10383000C4B20D4620460A21FDF7A4FF2843C2B2B8
:103840000A212046BDE83840FDF784BF07B5019046
:10385000FDF77FFF01981F21FFF7E9FF019803B0F3
:103860005DF804EBFFF7C6BF38B5C4B20D4620467D
:103870000A21FDF787FF20EA0500C2B20A2120468F
:10388000BDE83840FDF766BF10B50446FFF7C1FF3D
:1038900020461F21BDE81040FFF7E6BF10B5C0B2BB
:1038A0000C460B21FDF76EFF204010BD1F21FFF7D6
:1038B000F5BF0A46C0B20B21FDF74CBF1F21FFF731
:1038C000F8BF38B5C4B20D4620461721FDF75AFFA0
:1038D00020EA0500C2B217212046BDE83840FDF7B6
:1038E00039BF70B5C4B2064604212046FDF74AFF31
:1038F000042100F0FB0205462046FDF72BFF304671
:10390000F021FFF7DEFF05F0F80220460421FDF765
:1039100021FF492220212046FDF71CFF0220FDF750
:1039200061FF204601222121FDF714FF20469A2243
:103930004121FDF70FFF204601224A21FDF70AFF32
:10394000204601224B21FDF705FF204600224B2196
:10395000FDF700FF204601225621FDF7FBFE204621
:1039600001225821FDF7F6FE204601224021FDF7F5
:10397000F1FE2046FF220B21FDF7ECFEBDE8704072
:103980000220FDF72FBF0000054BD3F8882042F43A
:103990007002C3F888204FF000629A60704700BF41
:1039A00000ED00E008B50B4B1A6842F400721A6093
:1039B0001A6842F480621A601A6842F480721A60CF
:1039C000032000F02FF80020FEF7CAF9FDF794FF5E
:1039D000002008BD003C0240034A044B11681B78DC
:1039E0000B441360704700BF3C1700207800002094
:1039F000014B1868704700BF3C17002038B50446DB
:103A0000FFF7F6FF631C1CBF054B1B78054618BF6C
:103A1000E418FFF7EDFF431BA342FAD338BD00BF04
:103A2000780000200749CA6822F4E0620302120409
:103A300003F4E063120C134343F0BF6343F4003319
:103A4000CB60704700ED00E0164B30B5DC68C4F386
:103A50000224C4F10705231D042D28BF0425062BCD
:103A60004FF0FF338CBF033C002403FA05F521EA35
:103A70000501A34022EA0302A140002841EA020313
:103A8000ACBF00F16040084A4FEA0313B8BF00F032
:103A90000F00DBB2AABF00F56140135480F8003379
:103AA00030BD00BF00ED00E014ED00E0002808DBB1
:103AB0004209012300F01F0003FA00F0014B43F814
:103AC0002200704700E100E010B5044650B1437990
:103AD00003F0FF0213B90271FDF72EFF012363719A
:103AE000002010BD0120FCE710B5044630B390F86B
:103AF000393003F0FF021BB980F83820FDF734FF9E
:103B000022686168022384F83930136823F4403353
:103B10000B431360536BA16823F007030B435363FC
:103B2000136CE16823F47F5323F03F030B431364CA
:103B300000200123E06384F8393010BD0120FCE748
:103B400070477047036870B55E681D68F2070446E9
:103B500014D5E90512D51A6822F480721A60C26B76
:103B600042F00102C26301229A60042380F83930D6
:103B7000002380F83830436903B19847B20616D560
:103B8000AB0414D523681A6822F400521A6020226C
:103B90009A60E36B43F00203E363042384F8393053
:103BA000002384F8383063690BB12046984730070A
:103BB00016D5290514D523681A6822F400621A6004
:103BC00008229A60E36B43F00403E363042384F860
:103BD0003930002384F8383063690BB120469847A8
:103BE00072070BD56B0509D523681A6822F4806229
:103BF0001A6004229A602046FFF7A2FFB00714D58E
:103C0000A90512D523681A6822F400721A600222EC
:103C10009A60E36BE363012384F83930002384F86E
:103C2000383023690BB120469847F20613D5EB04D0
:103C300011D523681A6822F480521A6010229A6003
:103C4000E36BE363012384F83930002384F83830D0
:103C50002046FFF776FF70BDF0B590F83830012BA5
:103C60004FF002032BD0012280F8393080F8382041
:103C700000EB0113D3E907425D6A184F44EA0242A0
:103C8000093C012C9CBF05F07F431A434FEA011603
:103C9000036888BF42EA056299B9596A39400A4304
:103CA0005A62012C82699A6103D8426A22F07F42EB
:103CB0009A62012380F83930002380F838301846A2
:103CC000F0BDD96939400A43DA618219012C926941
:103CD0001A619CBF25F07F451D62EAE7F0FFFC00FA
:103CE0002DE9F74FDFF8C0916D4A00230D680124DC
:103CF0009C4004EA050CAC4340F0B9804D6805F0E7
:103D000003044FEA43080326671E06FA08F6012F4C
:103D10006FEA060634D8876807EA060ECF6807FA06
:103D200008F747EA0E078760476827EA0C0EC5F3D5
:103D300000179F4047EA0E074760C76807EA060E6C
:103D40008F6807FA08F747EA0E07022CC76019D1F7
:103D50004FEAD30A00EB8A0A03F0070BDAF8207067
:103D60004FEA8B0B4FF00F0E0EFA0BFE27EA0E0EEA
:103D70000F6907FA0BF747EA0E07CAF8207001E04F
:103D8000032CDAD1076804FA08F43E40264315F400
:103D9000403F06606BD04FF0000ACDF804A0D9F880
:103DA0004460404C46F48046C9F84460D9F8446009
:103DB00006F480460196019E23F0030606F1804634
:103DC00006F59C3603F0030ED6F808804FEA8E0EF7
:103DD0000F2707FA0EF7A04228EA07074ED004F58E
:103DE0008064A0424CD004F58064A0424AD004F51F
:103DF0008064A04248D004F58064A04246D004F517
:103E00008064A04244D004F58064A04242D004F50E
:103E10008064A04240D004F58064A0423ED004F506
:103E20008064A0420CBF09240A2404FA0EF43C4327
:103E3000B46094686FEA0C06EF0254BF34404CEA59
:103E400004049460D468AF0254BF34404CEA0404C4
:103E5000D4605468AF0354BF34404CEA0404546047
:103E60001468ED0354BF34404CEA04041460013379
:103E7000102B7FF43BAF03B0BDE8F08F5446D4E77E
:103E80000124D2E70224D0E70324CEE70424CCE7C0
:103E90000524CAE70624C8E70724C6E70824C4E7C0
:103EA000003C014000000240003802400369194212
:103EB00014BF0120002070470AB1816170470904D6
:103EC000FBE7436901EA030221EA030141EA0241F7
:103ED0008161704770470000044A5169014208B58A
:103EE00002D05061FFF7F6FF08BD00BF003C014063
:103EF00001684B6913F480634FF0000210D06FF437
:103F000080634B612023026380F83D3080F83E20BF
:103F1000036C80F83C2043F00403036401207047E5
:103F2000184670472DE9F84606460F4691461D464D
:103F30004FEA114A3368BAF1010F0CBF5C699C6902
:103F400027EA0404A4B2B4FA84F46409A14501D0B8
:103F5000002017E06A1CEED0FFF74AFD089BC01A4C
:103F6000A84201D8002DE5D100232022336386F832
:103F70003D2086F83E30326C86F83C3042F020021C
:103F800032640120BDE8F8862DE9F04104460F4671
:103F9000164698462568686927EA000080B2B8B1DD
:103FA0006B695A0516D52B6843F400732B606FF4C8
:103FB00080636B6120220023236384F83D2084F812
:103FC0003E30226C42F00402226484F83C3001202E
:103FD000BDE8F081731CDED0FFF70AFDA0EB0800FE
:103FE000B04201D8002ED5D100232022236384F8CB
:103FF0003D2084F83E30226C42F02002E4E770B5A8
:1040000004460D46164621684B6913F0400301D063
:10401000002010E04A69D2060ED56FF010024A6106
:104020002022236384F83D2084F83E30226C2264F1
:1040300084F83C30012070BDFFF7DAFC801BA842F9
:1040400001D8002DDFD100232022236384F83D20F6
:1040500084F83E30226C42F02002E8E770B5044656
:104060000D46164623685B695B0701D5002070BDCD
:104070002046FFF73DFFA8B96A1CF3D0FFF7B8FC54
:10408000801BA84201D8002DECD1002320222363FD
:1040900084F83D2084F83E30226C84F83C3042F0B5
:1040A000200222640120E2E770B504460D46164660
:1040B00023685B691B0601D5002070BD2046FFF711
:1040C00017FFA8B96A1CF3D0FFF792FC801BA84227
:1040D00001D8002DECD100232022236384F83D2059
:1040E00084F83E30226C84F83C3042F02002226496
:1040F0000120E2E72DE9F0431546026885B0DDE9CD
:104100000C789946136843F4807313600E463B465F
:10411000CDF8008000224FF001110446FFF702FFA6
:10412000236838B11B68DB0502D54FF400732364A4
:1041300003200AE006F0FE061E61194943463A468E
:104140002046FFF721FF18B1012005B0BDE8F0833C
:10415000236803905A6903929B6903934246394648
:104160002046039BFFF7A0FF40B1236C042B01BF47
:104170002268136843F400731360E5E7B9F1010F97
:10418000236802D1EDB21D61DFE72A0A1A613946C0
:1041900042462046FFF788FF0028E6D12368F1E772
:1041A000020001002DE9FF479A46036815461A6888
:1041B00042F480621A601A68DDE90C7842F4807279
:1041C0001A600E463B46CDF8008000224FF00111E8
:1041D0000446FFF7A7FE236848B11B68DB0502D53C
:1041E0004FF400732364032004B0BDE8F0875FFA46
:1041F00086F906F0FE061E612A4943463A462046E5
:10420000FFF7C2FE08B10120EEE7236803905A6968
:1042100003929B690393424639462046039BFFF76E
:1042200043FF40B1236C042B01BF2268136843F4A1
:1042300000731360E7E7BAF1010F23681AD1EDB2FA
:104240001D61424639462046FFF72EFF0028E9D17E
:104250002268136843F4807313604FF00111024623
:10426000CDF800803B462046FFF75CFE226860B137
:104270001368B3E72A0A1A61394642462046FFF717
:1042800013FF0028CED12368D9E749F00103136159
:10429000044943463A462046FFF776FE003818BFE9
:1042A0000120A1E70200010070B5044608B9012011
:1042B00070BD90F83D3003F0FF021BB980F83C2040
:1042C000FDF774FB242384F83D3023681A6822F03C
:1042D00001021A601A6842F400421A601A6822F455
:1042E00000421A6000F074FE3F4B65689D4294BF27
:1042F0003E4B3F4B98428CBF00230123002BD6D16D
:104300002268394E53683B49B0FBF1F123F03F037B
:104310000B43B542536088BF4FF49676136A88BF4B
:10432000714323F03F0384BF4FF47A76B1FBF6F17B
:10433000013119431162D169431E2B4821F44F41C9
:10434000854221F0FF0132D86D0040F6FC70B3FBCE
:10435000F5F30133034242D0C3F30B030B43D361A4
:10436000D4E907301168034321F0C0010B43136007
:104370009168D4E9030321F40341034321F0FF01D1
:104380000B439360D4E90530D168034321F0FF016A
:104390000B43D360136843F0010313600020202314
:1043A000206484F83D30206384F83E0080E7A068F4
:1043B00050B905EB4505B3FBF5F30133C3F30B032C
:1043C0007BB143F40043C9E719204543B3FBF5F340
:1043D0000133C3F30B0323B143F44043BEE704238B
:1043E000BCE70123BAE700BFA08601007F841E005E
:1043F000FF083D0040420F002DE9F743044699466F
:104400000C9E0F469046FFF7F3FA94F83D30202BB0
:10441000054603D0022003B0BDE8F08300903C497C
:10442000192301222046FFF77DFD0028F2D194F8E0
:104430003C30012BEED02068012384F83C30036827
:10444000D9075EBF036843F001030360036823F4E8
:1044500000630360212384F83D30402384F83E301C
:10446000002323640A9B6362BDF82C306385638D4F
:104470002385284BE362CDE900654B464246394629
:104480002046FFF737FE00282AD00120C3E7FFF7B8
:104490000BFE40B1236C042B01BF2268136843F468
:1044A00000731360F1E7636A27681A4612F8011B6C
:1044B00039616262628D218D013A92B262857A69B8
:1044C000481E80B2520720850AD548B15A783A6111
:1044D00002336362638D013B02399BB221856385A0
:1044E000238D2A4631462046002BD0D1FFF7B6FD5A
:1044F0000028CFD12268136843F40073136020238F
:1045000084F83D3084F83C0084F83E0083E700BF27
:10451000020010000000FFFF2DE9F043044687B0C1
:104520009946109F0D469046FFF762FA94F83D3089
:10453000202B064604D00225284607B0BDE8F083AC
:1045400000907649192301222046FFF7EBFC002852
:10455000F1D194F83C30012BEDD02068012384F890
:104560003C300368DB075EBF036843F00103036070
:10457000036823F400630360222384F83D30402362
:1045800084F83E30002323640E9B6362BDF83C3008
:104590006385638D2385624BE3622946CDE900760E
:1045A0004B4642462046FFF7FDFD054608B1012572
:1045B000C2E7228D2368B2B902905A6902929A69C1
:1045C0000292029A1A6842F400721A60DFF854816B
:1045D000238D002B2CD1202284F83D2084F83C3000
:1045E00084F83E30A8E7012A0AD11A6822F48062D2
:1045F0001A6003905A6903929A690392039AE1E759
:10460000022A0ED11A6822F480621A601A6842F4F3
:1046100000621A6004905A6904929B690493049B97
:10462000D4E705905A6905929B690593059BCDE7F0
:10463000032B56D8012B15D1324639462046FFF7B9
:10464000DEFC0028B3D123681A69636A1A70636AB2
:1046500001336362238D013B2385638D013B9BB254
:104660006385B5E7022B00963B464FF000024146BA
:10467000204619D1FFF756FC002898D123681A6804
:1046800042F400721A601A69636A1A70626A531CF3
:104690006362238D013B2385638D013B9BB2638560
:1046A00023681B695370D2E7FFF73CFC00287FF4B6
:1046B0007EAF23681A6822F480621A601A69636AFE
:1046C0001A70636A009601336362238D013B238570
:1046D000638D013B9BB2638502463B4641462046C3
:1046E000C8E7324639462046FFF789FC00287FF4A8
:1046F0005EAF23681A69636A1A70626A531C636248
:10470000238D013B2385638D013B9BB26385236829
:10471000596949077FF55CAFC3E700BF020010008D
:104720000000FFFF0400010010B590F83D30202B81
:10473000DCB216D1242380F83D3003681A6822F0D9
:1047400001021A605A6A22F010025A625A6A114330
:1047500059621A6842F001021A6080F83D40002058
:1047600010BD0220FCE730B590F83D30202BDCB2C4
:1047700016D10268242380F83D30136823F001032A
:104780001360556A4FF6F0732B400B439BB2536294
:10479000136843F00103136080F83D40002030BDF2
:1047A0000220FCE70068D1F800C0D20184328318EF
:1047B0002DE9F043C6685D684C68D1F8189005F49F
:1047C00070455D60C5680CF10107C5F30B45C6F384
:1047D0000B463D44264445EA06455D60C568CE6803
:1047E000C5F30A052E449D6805F470459D60C768B1
:1047F0008D68C7F30A0701353D4445EA06459D60CB
:104800001D690E6925F007051D614FF0000E1E6140
:104810009D6991F8327091F83180C3F818E091F8F1
:10482000305045EA096545EA082545EA07459D6196
:104830005D6925F0FF055D614D695D61DD6925F408
:10484000E06525F00705DD61D1E907573D43DD61EE
:104850009D6A4D6AC3F828E09D621EB3012E23D0E5
:10486000B51E022D22D9072E0CBF02250125DE6AB6
:1048700006F0E026DE62A4EB0C048E6AC96A6C4383
:104880006E43033444EA0644DC621C6B24F4FF6488
:1048900024F007041C631963835843F00103835019
:1048A000BDE8F0830425E2E70325E0E70225DEE723
:1048B00038B50446002863D090F8A13003F0FF0219
:1048C0001BB980F8A020FDF7CDF8022384F8A130B1
:1048D00023689A6922F070429A61D4E90120024368
:1048E000E06899690243206902430A439A619A6821
:1048F000244960690A409A609A6842EA0042A069C5
:1049000002439A60DA68E0690A40DA60DA6842EAEB
:104910000042206A0243DA601A69606A0A401A613A
:104920001A6942EA0042A06A02431A615A691140B8
:1049300059615A69E16A42EA0142216B0A435A61AC
:10494000D96A94F8360094F8355001F07F41D96265
:10495000D96A94F834200A4342EA052242EA004226
:10496000DA625A6B42F006025A639A6942F0010217
:104970009A6100200123C4F8A40084F8A13038BD56
:104980000120FCE700F800F070477047036870B53D
:104990009E6B5D6B7207044614D5690712D55A6B7E
:1049A00022F004025A630422DA63D0F8A43043F000
:1049B0000103C0F8A430002380F8A12080F8A030C3
:1049C000FFF7E2FFB20716D5AB0714D523685A6B81
:1049D00022F002025A630222DA63D4F8A4301343AD
:1049E000C4F8A430042384F8A130002384F8A03054
:1049F0002046FFF7C9FFF00710D5E9070ED5236859
:104A00005A6B22F001025A630122DA63002384F810
:104A1000A12084F8A0302046FCF7F6FB320711D520
:104A20002B070FD523685A6B22F008025A6308221D
:104A3000DA63012384F8A130002384F8A0302046F3
:104A4000FFF7A3FF70BD2DE9F04190F8A030012BD6
:104A500006460F4694464FF002001FD04FF0010863
:104A600086F8A08086F8A10034240D4604FB026479
:104A70000FCD38340FC40FCD0FC40FCD0FC42B682A
:104A80002360304662463946FFF78CFE33680020CB
:104A9000C3F8248086F8A18086F8A000BDE8F081E4
:104AA00090F8A030012B4FF0020312D080F8A13013
:104AB00003685A6B22F001025A63074A11645A6B69
:104AC00042F001025A63012380F8A130002380F8EC
:104AD000A0301846704700BF006801402DE9F3413F
:104AE000044640B30368DD0710D4236898075ED4FA
:104AF00023681A0700F1A08023685B0700F1C080DB
:104B0000A069002840F0288100202BE08F4B9A6894
:104B100002F00C02042A07D09A6802F00C02082A5C
:104B20000BD15A68510208D5884B1B689A03DCD513
:104B30006368002BD9D1012014E06268B2F5803F90
:104B400013D11A6842F480321A60FEF751FF7F4E8B
:104B5000054633689B03C8D4FEF74AFF401B642810
:104B6000F7D9032002B0BDE8F081784DB2F5A02F4F
:104B70002B6807D143F480232B602B6843F48033E8
:104B80002B60E2E723F480332B602B6823F480232F
:104B90002B60002AD9D1FEF72BFF06462B689F0316
:104BA000A3D5FEF725FF801B6428F7D9D9E7674B0B
:104BB0009A6812F00C0F07D09A6802F00C02082ACB
:104BC00011D15B685E020ED4604A13689D0702D55E
:104BD000E368012BAFD11368216923F0F80343EA9E
:104BE000C103136084E7E268594BB2B101221A6035
:104BF000FEF7FEFE554D06462B68980707D52B6835
:104C0000226923F0F80343EAC2032B6070E7FEF742
:104C1000EFFE801B0228EFD9A3E71A60FEF7E8FE3B
:104C20004A4E0546336899077FF562AFFEF7E0FE0E
:104C3000401B0228F6D994E76269454B82B10122F4
:104C4000C3F8802EFEF7D4FE404E0546736F9F07D3
:104C50003FF552AFFEF7CCFE401B0228F6D980E7A5
:104C6000C3F8802EFEF7C4FE384E0546736F9807D2
:104C70007FF542AFFEF7BCFE401B0228F6D970E775
:104C8000324B1A6C12F0805228D101921A6C42F009
:104C900080521A641B6C03F080530193019B01271F
:104CA0002C4D2B68D9051BD5A368284D012B27D186
:104CB0002B6F43F001032B67FEF79AFE234E054648
:104CC00041F28838336F9B0739D5002F3FF418AF76
:104CD0001E4A136C23F08053136411E70027DFE7AB
:104CE0002B6843F480732B60FEF782FE06462B6828
:104CF000DA05D9D4FEF77CFE801B0228F7D930E70D
:104D0000052B04D12B6F43F004032B67D0E72A6FE8
:104D100022F001022A672A6F22F004022A67002B80
:104D2000CAD1FEF765FE41F2883806462B6F980718
:104D3000CBD5FEF75DFE801B4045F7D911E7FEF7A6
:104D400057FE401B4045BDD90BE700BF003802406D
:104D50000000474200700040364DAB6803F00C0382
:104D6000082B3DD0344B002202281A662BD1FEF7C7
:104D70003FFE06462B6899011FD4D4E9073213433E
:104D8000626A43EA8213E26A43EA0263A26A520851
:104D9000013A43EA02436B60274B264D01221A6613
:104DA000FEF726FE04462B689A013FF5ADAEFEF7EE
:104DB0001FFE001B0228F6D9D3E6FEF719FE801B62
:104DC0000228D7D9CDE6FEF713FE04462B689B01D7
:104DD0007FF59AAEFEF70CFE001B0228F6D9C0E65E
:104DE00001283FF4BFAE6B68E26903F48001914291
:104DF0007FF4A1AE216A03F03F028A427FF49BAEAA
:104E0000616A47F6C0721A40B2EB811F7FF493AE1D
:104E1000A26A520803F44031013AB1EB024F7FF429
:104E20008AAEE26A03F07063B3EB026F3FF46CAEDC
:104E300081E600BF0038024000004742134908B530
:104E40008B6803F00C03042B1CD0082B1CD14A6880
:104E50004B68496813F4800314BF0D480D48C1F333
:104E6000881118BF002302F03F02A1FB0001FBF7ED
:104E70000FFA064B5B68C3F3014301335B00B0FBE1
:104E8000F3F008BD0248FCE70248FAE700380240A8
:104E900000127A000024F4002DE9F0410D4604468A
:104EA00010B90120BDE8F081444B1A6802F00F02EE
:104EB0008A4228D3226897072DD4D00741D43F4B8C
:104EC0001A6802F00F02AA4266D8226851076CD411
:104ED000130707D53A4A2169936823F4604343EAEC
:104EE000C1039360FFF7AAFF354B364A9B68C3F3B3
:104EF0000313D35CD840344B1860344B1868FCF76C
:104F00002FFF0020CEE7CAB21A701B6803F00F0310
:104F10008B42C6D1CEE72A4B12F0040F1EBF996810
:104F200041F4E0519960160742BF996841F460412D
:104F300099602349A0688B6823F0F00303438B60DA
:104F4000BBE762681E4B012A1CD11B6813F4003FAB
:104F5000A7D01B4EB36823F003031343B360FEF7DF
:104F600047FD41F288380746B368626803F00C03D6
:104F7000B3EB820FA3D0FEF73BFDC01B4045F3D936
:104F800003208FE7911E01291B6802D813F0007FD0
:104F9000DEE713F0020FDBE7EAB21A701B6803F0DA
:104FA0000F03AB427FF47DAF8FE70549E0688B6864
:104FB00023F4E05303438B608AE700BF003C0240C8
:104FC00000380240F0CD0108740000207C00002071
:104FD000044B054A9B68C3F38223D35C034A1068E1
:104FE000D84070470038024000CE0108740000200D
:104FF0000F2303600B4B9A6802F0030242609A6829
:1050000002F0F00282609A6802F4E052C2609B688B
:10501000DB0803F4E0530361034B1B6803F00F0349
:105020000B60704700380240003C0240036813F0F8
:10503000430FF7B5044640F08C80236813F00C0F43
:1050400045D08B4B8B4D00221A67FEF7D1FC0646EC
:105050002B689F0000F1CF8021684E0715D5D4E959
:105060000403D5F888201B0602F0E04243EA8013CF
:105070001343C5F88830D5F88C30226A23F4F853EE
:10508000013A43EA0223C5F88C300D0714D5794A5A
:10509000A369D2F8881020691B0701F0706143EA08
:1050A00080130B43C2F88830D2F88C30616A23F445
:1050B00040330B43C2F88C306D4B6E4E01221A67A1
:1050C000FEF796FC05463368980040F19B80236804
:1050D0009B0633D500230193664B674D1A6C42F053
:1050E00080521A641B6C03F080530193019B2B6860
:1050F00043F480732B60FEF77BFC06462B68D905D2
:1051000040F187805B4D2B6F13F4407340F0888033
:10511000A36A03F44072B2F5407F564A40F0A4807F
:10512000916823F0704021F4F81120F4407001439D
:105130009160116FC3F30B030B431367206810F0EA
:1051400010001FBF4D4B94F82C20C3F8E021002025
:105150004FE0474B474E00229A66FEF749FC054652
:1051600033681F013FD42168CD0741BFD4E9012333
:105170001B0743EA8213C6F88430880715D53D4AD9
:10518000E368D2F8840065681B0600F0E04043EA5B
:1051900085130343C2F88430D2F88C00E36920F011
:1051A0001F00013B0343C2F88C3049060AD5E3686F
:1051B00062681B0643EA8213A26843EA02732D4A1F
:1051C000C2F884302A4B2B4E01229A66FEF710FC5F
:1051D000054633681A013FF530AFFEF709FC401B66
:1051E0000228F6D904E0FEF703FC401B0228B7D9D9
:1051F000032003B0F0BDFEF7FBFB801B02287FF607
:1052000027AFF5E7FEF7F4FB401B02287FF65BAF04
:10521000EEE7FEF7EDFB801B02287FF66FAFE7E7B6
:10522000A26A02F4407293423FF472AF2B6F104AAD
:105230000121C2F8401E23F440730021C2F8401E31
:105240002B672B6FDA077FF563AFFEF7D1FB41F2D7
:10525000883706462B6F9B073FF55AAFFEF7C8FB12
:10526000801BB842F6D9C3E7916821F4F8115FE7D3
:1052700000004742003802400070004000104742E2
:1052800038B50D460446C8B190F82C3003F0FF0243
:105290001BB980F82D20FCF7F7FC022384F82C3092
:1052A000211D206800F004FD62682068294600F096
:1052B0003AFD012384F82C30002038BD0120FCE7A2
:1052C00070B590F82C30022B05460E46D8B212D09D
:1052D00000F0FB04012C0FD1022385F82C30286844
:1052E00000F057FD3368022B06BF052385F82C30EC
:1052F00085F82C40002070BD0120FCE738B590F8FF
:105300002C30022B0446D8B20DD094F82C30012B4F
:10531000DDB209D10223206884F82C3000F05FFD53
:1053200084F82C50002038BD0120FCE72DE9F34122
:105330001D46174688460646FEF75AFB3D442C1A82
:10534000FEF756FB224B1B68C3F3CB330546634382
:1053500032680193936838EA030301D000202DE0FE
:105360007B1CF7D0FEF744FB401BA04229D33368D7
:105370005A6822F0E0025A607268B2F5827F0AD160
:10538000B268B2F5004F02D0B2F5806F03D11A684F
:1053900022F040021A60B26AB2F5005F07D11A68C3
:1053A00022F400521A601A6842F400521A60012373
:1053B00086F85130002386F85030032002B0BDE853
:1053C000F081019B002B019B08BF0024013BBFE73C
:1053D0007400002038B513464268B2F5827F044657
:1053E0001FD18268B2F5004F02D0B2F5806F07D1AD
:1053F00025682868B2F5806F20F04000286007D04B
:105400000A4680212046FFF791FF20B9002038BDD1
:105410000A460121F6E7636D43F02003636503202C
:10542000F5E70A460121EEE737B51346124A15683B
:10543000124AB5FBF2F54FF47A7255434268019572
:10544000B2F5827F04460BD10A468021FFF76EFF3A
:1054500078B1636D43F020036365032003B030BD72
:10546000019B33B1019B013B019323689B681B06A1
:10547000F6D40020F2E700BF7400002000366E0171
:1054800010B50446002855D0436A002B4ED142681F
:10549000B2F5827F00D0C3610023A36294F851303B
:1054A00003F0FF0223B984F850202046FCF7B6FB36
:1054B0002168A068A269022384F851300B6823F0A8
:1054C00040030B60636800F4044003F482730343F9
:1054D000E06800F400600343206900F00200034329
:1054E000606900F00100034302F400700343E069C7
:1054F00000F038000343206A00F080000343A06AF4
:1055000000F4005003430B60636A120C03F01003B5
:1055100002F004021A434A60CB6923F40063CB61B2
:1055200000200123606584F8513010BD0023C0E9DC
:105530000433B1E70120F8E72DE9F3411E4690F866
:105540005030012B04460D46174600F0A180012380
:1055500080F85030FEF74CFA94F85130012B804619
:10556000D8B240F09380002D5ED0002F5CD0A268AE
:105570002563032384F85130B2F5004F4FF0000348
:105580006365C4E91033E786A363A387E387A7862F
:10559000236807D11A6822F040021A601A6842F4A0
:1055A00080421A601A68E16852065EBF1A6842F0CB
:1055B00040021A60B1F5006F626841D10AB1012F53
:1055C00007D135F8022BDA602563E38E013B9BB2ED
:1055D000E386E38E9BB2A3B9424631462046FFF7ED
:1055E00023FF00284FD1A36833B901932368DA68F9
:1055F00001929B680193019B606D003818BF0120E8
:1056000012E022689368980705D5236B33F8021BD4
:10561000D1602363D9E7FEF7EBF9A0EB0800B042B5
:105620000BD3711CD5D00320012384F85130002303
:1056300084F8503002B0BDE8F081002EC9D1F2E705
:105640000AB1012F08D12A781A73236B013323631F
:10565000E38E013B9BB2E386E38E9BB2002BBBD073
:1056600023689A68920702D5226B1278ECE7FEF75E
:10567000BFF9A0EB0800B04202D3731CECD0D2E714
:10568000002EE9D1CFE720236365ACE70220CBE70A
:105690000220CFE72DE9F7431E4690F850300A9FCD
:1056A000012B04460D46914600F0E680012380F868
:1056B0005030FEF79DF994F851306268012B804616
:1056C000D9B20AD0B2F5827F40F0D480A368002B13
:1056D00040F0D080042940F0CD80002D40D0B9F1B9
:1056E000000F3DD0002E3BD094F85130C4F83890D4
:1056F000042B1CBF052384F8513000236365C4E9E3
:1057000010332368E687E6861968A687490658BFDE
:105710001968256358BF41F04001A68658BF19603B
:10572000E168B1F5006F52D10AB1012E07D135F809
:10573000022BDA60E38E2563013B9BB2E3860125F1
:10574000E38E9BB273B9E38F9BB25BB94246394695
:105750002046FFF769FE002800F081802023636562
:1057600001202BE021688B689E070DD5E38E9BB24C
:1057700053B14DB1236B33F8022BCA602363E38E20
:10578000013B9BB2E38600258A6812F001020CD02F
:10579000E38F9BB24BB1A36BC96823F8021BA363D1
:1057A000E38F013B9BB2E3871546FEF721F9A0EB9F
:1057B0000800B842C4D3781CC2D00320012384F867
:1057C0005130002384F8503003B0BDE8F0830AB1B3
:1057D000012E08D12A781A73236B01332363E38ED9
:1057E000013B9BB2E38601252DE02268936899076F
:1057F0000ED5E38E9BB25BB155B1236B1B7813734F
:10580000236B01332363E38E013B9BB2E3860025C8
:105810002268916811F001010DD0E38F9BB253B162
:10582000A36BD2681A70A36B0133A363E38F013BB0
:105830009BB2E3870D46FEF7DBF8A0EB0800B84209
:105840000AD37B1CB9D1E38E9BB2002BCDD1E38F61
:105850009BB2002BC9D179E7002FF4D1ADE7A36843
:10586000002BABD123680190DA6801929B68019309
:10587000019BA3E70220A1E70220A5E72DE9F7435A
:105880001D464368B3F5827F0446894617460CD10E
:10589000836853B9042380F85130134600950A46B3
:1058A000FFF7F8FE03B0BDE8F08394F85030012B09
:1058B00000F08680012384F85030FEF799F894F8C0
:1058C0005130012B8046D8B278D1B9F1000F5CD0AD
:1058D000002F5AD0A268C4F8389000260423B2F5ED
:1058E000004F84F85130C4E9106666652368E78785
:1058F000A7872663A686E68607D11A6822F04002AB
:105900001A601A6822F480421A601A6856065EBF4E
:105910001A6842F040021A60E368F3B1E38F9BB269
:10592000FBB123689A68D20739D5DA68A36B23F8EC
:10593000022BA363E38F013B9BB2E387EEE723686F
:105940009A68D00718D5A26B1B7B1370A36B013329
:10595000A363E38F013B9BB2E387E38F9BB2002BF2
:10596000EDD1424629462046FFF734FD18BB606D55
:10597000003818BF012008E0FEF73AF8A0EB080055
:10598000A84209D3691CE8D00320012384F85130D0
:10599000002384F8503085E7002DDED1F4E7FEF7D0
:1059A00027F8A0EB0800A84202D36B1CB6D0EBE7A7
:1059B000002DB3D1E8E720236365D8E70220E4E7B0
:1059C00002206FE77047000090F83D30012B30D186
:1059D000022380F83D300368DA6842F00102DA60A1
:1059E000154A93421AD0B3F1804F17D0A2F57C42EA
:1059F000934213D002F5806293420FD002F5806289
:105A000093420BD002F57842934207D002F57052D0
:105A1000934203D0A2F59432934204D19A6802F0E3
:105A20000702062A03D01A6842F001021A60002019
:105A300070470120704700BF000001407047704769
:105A40007047704703681A69910710B504460ED570
:105A5000DA6892070BD56FF002021A610122027711
:105A60009B699B0777D0FFF7EAFF00232377236822
:105A70001A69500710D5DA6851070DD56FF0040286
:105A80001A61022222779B6913F4407F204668D076
:105A9000FFF7D5FF0023237723681A6912070FD574
:105AA000DA6810070CD56FF008021A610422227719
:105AB000DB69990720465AD0FFF7C1FF00232377FF
:105AC00023681A69D20610D5DA68D0060DD56FF0B2
:105AD00010021A6108222277DB6913F4407F204606
