:060000000200210202389B
:01000B0032C2
:0300130002026A7C
:03001B0002016F70
:10007A00E4F508F509F50AF50BF50CF50D02001E75
:03001E000203C119
:20008A0085822185832285F023F5249003E8E4F5F012050FAC82AD83AEF0FFC3E49CE49D2A
:2000AA00E49E74808FF063F08095F04001225389F0438901C2A9C3EE9401EF648094804015
:2000CA000FE4F58CF58AEE24FFFEEF34FFFF8057E4C39CF50EE49DF50F74019EF510E49FB6
:2000EA00F511E4F521752201F523F524850E82850F838510F0E511120642A882888CE4F515
:20010A0021752201F523F524850E82850F838510F0E5111205F3A882A983AAF0FB888A7CC1
:20012A00007D007E007F00C28DD28C308DFDC28C0200A5D2B69003E8E4F5F012008AC2B6FF
:20014A0022900706E493F512740193F51353890F438910758D3C758BB0C28FD28ED2ABD293
:20016A00AF22C28E22C020C0E0C0F0C082C083C007C006C005C004C003C002C001C000C0A1
:20018A00D075D000C28FC28E758D3C758BB0E51245137069C2AFE50C450D7048E50A450BDE
:2001AA007031E50845096005E4F508F50912013D90012CE4F5F012008A12013D90012CE4B2
:2001CA00F5F012008A12013D90012CE4F5F012008A801A750C3B750D00150A74FFB50A02F7
:2001EA00150B8009150C74FFB50C02150D900706E493F512740193F513D2AF800915127403
:20020A00FFB512021513D28ED0D0D000D001D002D003D004D005D006D007D083D082D0F0E3
:20022A00D0E0D02032D2B2D2A8D288D2AF22C0E0C0D0C2AFC3E50A943CE50B64809480508C
:20024A000A050AE4B50A09050B8005E4F50AF50BD2AFD0D0D0E032D2B3D2AAD28AD2AF2254
:20026A00C0E0C0D0C2AF7401C39508F508E49509F509D2AFD0D0D0E032AF827522C075235E
:20028A00F97524A47525B07526997527927528827529F8752A80752B90BF0A005016E52139
:2002AA00600CEF2422F98706747F5EF59022EF2422F9879022858216858317AC14AD15C32D
:2002CA00E49C74808DF063F08095F0400122AA16AB1775180878007F0075210A7522008A99
:2002EA00828B83C007C005C004C003C002C000120694A982AE83D000D002D003D004D005A9
:20030A0075210A7522008A828B83C006C005C004C001C0001206CAAA82AB83D000D001D005
:20032A0004D005D006D00774FF6518F5A0B80225BF00228982752101C007C005C004C00333
:20034A00C002C000120283D000D002D003D004D005D00780208982752100C007C005C004F4
:20036A00C003C002C000120283D000D002D003D004D005D00790000AE4F5F0C007C005C0F3
:20038A0004C003C002C00012008AD000D002D003D004D005D007E518C313F51808B80001D8
:2003AA000FC3E89404EF6480948050030202E31CBCFF011D0202C9C2B612022F120261745A
:2003CA0001B5080614B5090280028008208E0B12014B8006308E0312016C850A21850B2232
:2003EA009000641204F2E5828583F0250CF582E50D35F0F5837514017515001202BF80BF3B
:020706000500EC
:20040A00F9E52145224523452460777800C308E52420E73BE52125E0F521E52233F522E5DF
:20042A002333F523E52433F524E5829521E5839522E5F09523E9952450D4C3E52413F52468
:20044A00E52313F523E52213F522E52113F521E5829521FCE5839522FDE5F09523FEE995C1
:20046A00244007F98EF08D838C82C3E52413F524E52313F523E52213F522E52113F521D80F
:03048A00CEE92296
:20048D00FB7A20E4FCFDFEFFE5822582F582E58333F583E5F033F5F0EB33FB4017DAE980A8
:2004AD0042E5822582F582E58333F583E5F033F5F0EB33FBEC33FCED33FDEE33FEEF33FFD7
:2004CD00EC9521ED9522EE9523EF95244013EC9521FCED9522FDEE9523FEEF9524FF4382D9
:0504ED0001DABEEB2264
:06005000E478FFF6D8FD84
:20002E007900E94400601B7A00900708780175A000E493F2A308B8000205A0D9F4DAF27569
:02004E00A0FF11
:1D04F200E5828521F0A4C582C0F08522F0A4D0F025F0C5838521F0A42583F5832281
:20050F00AAF0FBE5828521F0A4FCADF0E5838521F0A42DFDE435F0FEE5828522F0A42DFD5E
:20052F00E5F03EFEE433FFEA8521F0A42EFEE5F03FFFE5838522F0A42EFEE5F03FFFE582D9
:20054F008523F0A42EFEE5F03FFFEB8521F0A42FFFEA8522F0A42FFFE5838523F0A42FFF99
:0E056F00E5828524F0A42F8EF08D838C8222ED
:20057D00E521452260467A01E52125E0F521E522334012F522E5829521E583952240030A83
:20059D0080E6C3E52213F522E52113F521C3E5829521F5F0E58395224005F58385F082C35A
:0D05BD00E52213F522E52113F521DAE122F4
:200056007800E84400600A790175A000E4F309D8FC7800E84400600C7900900001E4F0A3A8
:04007600D8FCD9FADF
:2005CA007A10E4FBFCE58225E0F582E58333F583EB33FBEC33FCEB9521F5F0EC9522400613
:0905EA00FCABF0438201DADD22D2
:2005F300F9C2D530E715D2D5E4C39582F582E49583F583E495F0F5F0E499F9E52430E715E3
:20061300E4C39521F521E49522F522E49523F523E49524F524E912040A30D512E4C395825A
:0F063300F582E49583F583E495F0F5F0E49922E0
:20064200FBC2D530E715D2D5E4C39582F582E49583F583E495F0F5F0E49BFBE52430E7178B
:20066200B2D5E4C39521F521E49522F522E49523F523E49524F524EB12048D30D513FBE4DD
:12068200C39582F582E49583F583E495F0F5F0E49B22B2
:0D00210075812B120702E582600302001EAC
:20069400C2D5E58330E70DD2D5E4C39582F582E49583F583E52230E70BE4C39521F521E453
:1606B4009522F52212057D30D50BE4C39582F582E49583F58322F3
:2006CA00C2D5E58330E70DD2D5E4C39582F582E49583F583E52230E70DB2D5E4C39521F599
:1806EA0021E49522F5221205CA30D50BE4C39582F582E49583F5832269
:0407020075820022DA
:00000001FF
