:03000000020006F5
:03005F0002000399
:030003000201DE19
:1000620085820D85830E85F00FF5109003E8E4F587
:10007200F01202DBAC82AD83AEF0FFC3E49CE49DE0
:10008200E49E74808FF063F08095F04001225389E2
:10009200F0438901C2A9C3EE9401EF6480948040C9
:1000A2000FE4F58CF58AEE24FFFEEF34FFFF805754
:1000B200E4C39CF509E49DF50A74019EF50BE49FE7
:1000C200F50CE4F50D750E01F50FF5108509828525
:1000D2000A83850BF0E50C120398A882888CE4F55C
:1000E2000D750E01F50FF510850982850A83850BC2
:1000F200F0E50C120349A882A983AAF0FB888A7C46
:10010200007D007E007F00C28DD28C308DFDC28CBE
:1001120002007DAE82AF838E048F051EBEFF011FDB
:10012200EC4D70F322D2B7900008120115C2B790BD
:100132000041120115D2B79000140201157F007E12
:1001420008C2B7EFC313FFD2B730B703430780909B
:100152000004C007C006120115D006D007DEE28FE8
:100162008222AF827E08C2B7EF540124FF92B79079
:100172000005C007C006120115D006D007D2B7EF9E
:10018200C313FFDEE1221201277582CC12016475CE
:10019200824412016490000A12011512012775822D
:1001A200CC1201647582BE12016490000A1201151C
:1001B20012013FAF82C00712013FAE82D0078E0507
:1001C200E4FEFCEF2EFEEC3DC4CEC4540F6ECE54C2
:1001D2000FCE6ECE30E30244F08E0822C2B6120178
:1001E20088E508F4F5909001F4E4F5F012006280DD
:1001F200EDF9E50D450E450F451060777800C3080F
:10020200E51020E73BE50D25E0F50DE50E33F50E93
:10021200E50F33F50FE51033F510E582950DE58313
:10022200950EE5F0950FE9951050D4C3E51013F53E
:1002320010E50F13F50FE50E13F50EE50D13F50D91
:10024200E582950DFCE583950EFDE5F0950FFEE93F
:1002520095104007F98EF08D838C82C3E51013F55B
:1002620010E50F13F50FE50E13F50EE50D13F50D61
:10027200D8CEE922FB7A20E4FCFDFEFFE58225824E
:10028200F582E58333F583E5F033F5F0EB33FB409C
:1002920017DAE98042E5822582F582E58333F58328
:1002A200E5F033F5F0EB33FBEC33FCED33FDEE33ED
:1002B200FEEF33FFEC950DED950EEE950FEF9510D9
:1002C2004013EC950DFCED950EFDEE950FFEEF95AE
:0902D20010FF438201DABEEB22A9
:06003500E478FFF6D8FD9F
:100013007900E94400601B7A009003EE780175A033
:1000230000E493F2A308B8000205A0D9F4DAF2754C
:02003300A0FF2C
:1002DB00AAF0FBE582850DF0A4FCADF0E583850D5E
:1002EB00F0A42DFDE435F0FEE582850EF0A42DFD86
:1002FB00E5F03EFEE433FFEA850DF0A42EFEE5F0BB
:10030B003FFFE583850EF0A42EFEE5F03FFFE5826F
:10031B00850FF0A42EFEE5F03FFFEB850DF0A42F2B
:10032B00FFEA850EF0A42FFFE583850FF0A42FFFC6
:0E033B00E5828510F0A42F8EF08D838C822237
:10003B007800E84400600A790175A000E4F309D860
:10004B00FC7800E84400600C7900900001E4F0A318
:04005B00D8FCD9FAFA
:10034900F9C2D530E715D2D5E4C39582F582E49593
:1003590083F583E495F0F5F0E499F9E51030E715B4
:10036900E4C3950DF50DE4950EF50EE4950FF50F23
:10037900E49510F510E91201F330D512E4C3958222
:10038900F582E49583F583E495F0F5F0E49922FB91
:10039900C2D530E715D2D5E4C39582F582E49583B9
:1003A900F583E495F0F5F0E49BFBE51030E717B22F
:1003B900D5E4C3950DF50DE4950EF50EE4950FF50D
:1003C9000FE49510F510EB12027630D513FBE4C358
:1003D9009582F582E49583F583E495F0F5F0E49B45
:0103E90022F1
:0D0006007581101203EAE582600302000319
:0403EA0075820022F6
:00000001FF
