:06000000020009020130BC
:10006200E4F508F509751E01F51F752101F5220257
:02007200000686
:030006000204AF42
:1000740085827785837885F079F57A9003E8E4F5CD
:10008400F0120947AC82AD83AEF0FFC3E49CE49D5B
:10009400E49E74808FF063F08095F04001225389D0
:1000A400F0438901C2A9C3EE9401EF6480948040B7
:1000B4000FE4F58CF58AEE24FFFEEF34FFFF805742
:1000C400E4C39CF523E49DF52474019EF525E49F87
:1000D400F526E4F577757801F579F57A8523828537
:1000E40024838525F0E526120AAAA882888CE4F5E3
:1000F40077757801F579F57A8523828524838525BA
:10010400F0E526120A5BA882A983AAF0FB888A7C00
:10011400007D007E007F00C28DD28C308DFDC28CAC
:1001240002008FD2B2D2A8D288D2AF22C0E0C0D00F
:10013400C2AF7401C39521F521E49522F522D2AF13
:10014400D0D0D0E032900001E4F5F0020074858252
:10015400A0C287C286D285900001E4F5F012007433
:10016400C285120149D285228582A0D287C286D255
:1001740085900001E4F5F0120074C285120149D2A1
:1001840085227580FF75823812015275820C120126
:100194005275820112015275828002015285822BAE
:1001A40085832C85F02D7401B5270814B5280474B3
:1001B400018001E4FC7402B52708E4B52804740145
:1001C4008001E4FB79007A00E9252BF8EA352CFE5E
:1001D400AF2D88828E838FF012147F700122E94A3A
:1001E4007058E529452A7052EC6018758280C00465
:1001F400C003C002C001120152D001D002D003D00A
:10020400048037EB60187582C0C004C003C002C00C
:1002140001120152D001D002D003D004801C758297
:1002240001C004C003C002C00112015275828012D1
:100234000152D001D002D003D004E9252BFDEA35C8
:100244002CFEAF2D8D828E838FF012147FF582C029
:1002540004C003C002C00112016CD001D002D0035B
:10026400D00409B900010A0201CCAF82E53045315E
:1002740070427401B52E0614B52F028002800C75ED
:100284008280C007120152D00780297402B52E065D
:10029400E4B52F028002800C7582C0C0071201529F
:1002A400D0078010758201C0071201527582801236
:1002B4000152D0078F8202016CAE82AF838E048F0D
:1002C400051EBEFF011FEC4D70F322D2B79000084B
:1002D4001202BDC2B79000411202BDD2B790001401
:1002E4000202BD7F007E08C2B7EFC313FFD2B7304E
:1002F400B703430780900004C007C0061202BDD0B4
:1003040006D007DEE28F8222AF827E08C2B7EF54A6
:100314000124FF92B7900005C007C0061202BDD0A9
:1003240006D007D2B7EFC313FFDEE122C2AF120239
:10033400CF7582CC12030C75824412030C90000A10
:100344001202BD1202CF7582CC12030C7582BE124A
:10035400030C90000A1202BD1202E7AF82C007121A
:1003640002E7AE82D0078E05E4FEFCEF2EFEEC3DE4
:10037400C4CEC4540F6ECE540FCE6ECE30E30244BE
:10038400F08E20D2AF22AC82AD83AEF0FFC004C0A9
:1003940005C006C00790000075F0107441120843B0
:1003A400AC82AD83AEF0FFE58124FCF581E4C0E0CE
:1003B400C0E074A0C0E07440C0E08C828D838EF0F5
:1003C400EF1213BCAC82AD83AEF0FFE58124FCF5E3
:1003D40081E4C0E0C0E0C0E07442C0E08C828D8360
:1003E4008EF0EF120A02AC82AD83AEF0FFE58124F9
:1003F400FCF581C007C006C005C004C004C005C028
:1004040006C00790000075F0207441120843A882CA
:10041400A983AAF0FBE58124FCF581888289838A7B
:10042400F0EB120BF675770A75780012149BAA820A
:10043400AB83D004D005D006D007C3EA9405EB649F
:100444008094804024E4C0E0C0E07480C0E0743F45
:10045400C0E08C828D838EF0EF120A02AC82AD83F1
:10046400AEF0FFE58124FCF5818C828D838EF0EF64
:10047400020BF6AE82AF83E5214522600E8E828F99
:1004840083120C2A12038AAE82AF83C006C007749B
:10049400CDC0E07415C0E07480C0E0C032C033C089
:1004A40034120BA9E58124F8F58122120186120188
:1004B400271203309003E8E4F5F0120074120330BD
:1004C4007E007F00C3EE940AEF64809480505B85C5
:1004D4001E82851F83A375770B757800C007C0063D
:1004E40012149B85821E85831FD006D007E5202425
:1004F4007F4018E51E251EFCE51F33EC2408F9ACEB
:10050400207D00A70409A705198018E51E251EFCF7
:10051400E51F33EC2408F9AC20E424FFFDA704090B
:10052400A705190EBE009D0F809A851E82851F8324
:10053400A375770B75780012149B85821E85831F23
:10054400120330E520247F4018E51E251EFEE51F1A
:1005540033EE2408F9AE207F00A70609A707198007
:1005640018E51E251EFEE51F33EE2408F9AE20E42F
:1005740024FFFFA70609A707197E187FFC753FE82B
:100584007540037A017B00EA2AFCEB33EC2408F97A
:10059400870409870519C3EC953FED64808540F015
:1005A40063F08095F050048C3F8D40EA2AFCEB33D5
:1005B400EC2408F9870409870519C3EE9CEF6480CD
:1005C4008DF063F08095F050048C068D070ABA0014
:1005D400010BC3740A9A74808BF063F08095F05019
:1005E400A6752701E4F528F529F52A9015D075F0AC
:1005F40080C007C0061201A1E51E251EFCE51F33BD
:10060400EC2408F98782098783197532357533001C
:10061400753440120477D006D00775270275280078
:10062400752901752A0090003575F040C007C00691
:100634001201A1D006D007752E01752F0075300167
:100644007531007582DFC007C00612026ED006D075
:1006540007E5214522601C752E01752F00753001B8
:10066400753100758246C007C00612026ED006D0EE
:1006740007801A752E01752F0075300175310075CC
:100684008243C007C00612026ED006D00775270148
:10069400752800752901752A009015DB75F080C056
:1006A40007C0061201A1D006D007752702E4F52879
:1006B400F529F52A9015E275F080C007C0061201ED
:1006C400A1753235753300753440853F828540838A
:1006D400120477D006D00775270275280075290102
:1006E400752A0090003575F040C007C0061201A1BC
:1006F400D006D007752702752800752901752A00D0
:100704009015E675F080C007C0061201A1D006D08E
:10071400077532357533007534408E828F83120429
:1007240077752702752800752901752A0090003510
:1007340075F0401201A1752702752800752901750D
:100744002A009015EB75F0801201A19003E8E4F5FE
:07075400F012007402052EF3
:1015CD002564004375722054656D703A200020200B
:1015DD0020202020004C3A200020483A20002020D6
:0615ED0020202020200058
:10075B00F9E57745784579457A60777800C308E500
:10076B007A20E73BE57725E0F577E57833F578E513
:10077B007933F579E57A33F57AE5829577E58395E3
:10078B0078E5F09579E9957A50D4C3E57A13F57A43
:10079B00E57913F579E57813F578E57713F577E5D2
:1007AB00829577FCE5839578FDE5F09579FEE995E3
:1007BB007A4007F98EF08D838C82C3E57A13F57A34
:1007CB00E57913F579E57813F578E57713F577D8AF
:1007DB00CEE922FB7A20E4FCFDFEFFE5822582F5C3
:1007EB0082E58333F583E5F033F5F0EB33FB40170C
:1007FB00DAE98042E5822582F582E58333F583E5EC
:10080B00F033F5F0EB33FBEC33FCED33FDEE33FE65
:10081B00EF33FFEC9577ED9578EE9579EF957A4080
:10082B0013EC9577FCED9578FDEE9579FEEF957AC7
:10083B00FF438201DABEEB221208E6BC0003020C76
:10084B0058EF60FA30D502B2D1E583B4FF03020C46
:10085B006EE582B4FF03020C6E25834007248240B1
:10086B000B020C582483145003020C6EF582EA8D94
:10087B00F0A4A8F0EA8EF0A428F8E435F0F9EB8D9B
:10088B00F0A428E935F0F9E433CA8FF0A429F9EA8A
:10089B0035F0FAEBF88EF0A429F9EA35F0FAE433E7
:1008AB00FBEC8DF0A429F9EA35F0FAE43BFBE88F79
:1008BB00F0A42AFAEB35F0FBE433CCFD8EF0A42A3E
:1008CB00FAEB35F0FBE43CFCED8FF0A42BFBEC35A5
:1008DB00F0FC20E703120914020C37AA82AB83A2A7
:1008EB00F73392D1F5826002D2F7ACF0E58124F9AF
:1008FB00F8E6FD08E6FE0886F008E6A2F73392D587
:09090B00F5836002D2F7AFF0227F
:06003800E478FFF6D8FD9C
:100914007804EC7011E58224F8500AF582E4C9CA1F
:10092400CBFCD8EF22EC7820058220E713D5820196
:1009340022C3E933F9EA33FAEB33FBEC33FCD8EAAC
:03094400158222F7
:100016007900E94400601B7A009015FE780175A00E
:1000260000E493F2A308B8000205A0D9F4DAF27549
:02003600A0FF29
:10094700AAF0FBE5828577F0A4FCADF0E583857717
:10095700F0A42DFDE435F0FEE5828578F0A42DFDA9
:10096700E5F03EFEE433FFEA8577F0A42EFEE5F0DE
:100977003FFFE5838578F0A42EFEE5F03FFFE58293
:100987008579F0A42EFEE5F03FFFEB8577F0A42FE5
:10099700FFEA8578F0A42FFFE5838579F0A42FFF80
:1009A700E582857AF0A42F8EF08D838C8222E577FD
:1009B700457860467A01E57725E0F577E5783340B5
:1009C70012F578E5829577E583957840030A80E606
:1009D700C3E57813F578E57713F577C3E58295775F
:1009E700F5F0E58395784005F58385F082C3E578D2
:0B09F70013F578E57713F577DAE122BD
:10003E007800E84400600A790175A000E4F309D85D
:10004E00FC7800E84400600C7900900001E4F0A315
:04005E00D8FCD9FAF7
:100A02001208E67900E583B58202800D50031213C5
:100A12006DE583C395821214FEE5D0C465D020E152
:100A220017EA2DFAEB3EFBEC3FFC5009740112145D
:100A3200FEEC4480FC020C37C3EA9DFAEB9EFBEC11
:100A42009FFC500FC3E499F9E49AFAE49BFBE49CFF
:100A5200FCB2D1120914020C37F9C2D530E715D213
:100A6200D5E4C39582F582E49583F583E495F0F5A8
:100A7200F0E499F9E57A30E715E4C39577F577E480
:100A82009578F578E49579F579E4957AF57AE9122D
:100A9200075B30D512E4C39582F582E49583F58332
:100AA200E495F0F5F0E49922FBC2D530E715D2D5F2
:100AB200E4C39582F582E49583F583E495F0F5F03D
:100AC200E49BFBE57A30E717B2D5E4C39577F57777
:100AD200E49578F578E49579F579E4957AF57AEB09
:100AE2001207DE30D513FBE4C39582F582E49583C9
:100AF200F583E495F0F5F0E49B22C048858148C077
:100B020082058105810581E54824FBF8A948090988
:100B1200E6F708E609F708E609F7A8480808868212
:100B22000886830886F012147FFAA312147FFBA3AF
:100B320012147FFF74012AFCE43BFD8F06A84808CB
:100B42000886820886830886F0EC1215AEA3ED12A1
:100B520015AEA3EE1215AE8A828B838FF0A84808D9
:100B6200E61215AE854881D04822858245858346A6
:100B720085F047755645755700755840854159852A
:100B8200425A85435B85445C900AFC120D1FAE827B
:100B9200AF83AB45AC46AD478B828C838DF0E412BC
:100BA20015AE8E828F8322C048E581F54824F8FF76
:100BB2008F5CE54824FBFF8F56755700755840E55A
:100BC2004824F8F8865908865A08865B900AFC126F
:100BD2000D1FAE82AF83E54824FBF8860308860426
:100BE2000886058B828C838DF0E41215AE8E828F7F
:100BF20083D04822121541700AE582458345F07080
:100C02000122E430D112F4700BE5F0F47006E583B2
:100C120030E7012290800022700AE5F07006E58339
:100C220020E70122907FFF22AC83AB827A00790019
:100C3200748E0214DAB98003EA13B34010EA240175
:100C4200FAE43BFBE43CFC50047C800582BC000ED1
:100C5200BB000BBA0008E4F5F0F583F58222A2D1BD
:100C6200E582138CF092F78B838A8222E4F583F576
:100C72008275F080F4A2D11322E4F583F58275F037
:100C8200C0747F22AF82C04CC04DC04E120C938004
:100C920007C04AC04B8F82221581158115810554E8
:100CA200E4B55402055522AF8274302FFF24C6509A
:100CB2000B74072FFFE54960034307208F82020C64
:100CC20086E582FFC4540FF582C007120CA9D00733
:100CD200740F5FF582020CA9858277AB4FAC50ADE1
:100CE20051AE52AA537579208A07EF2FF578EE2379
:100CF20054014578FAEB2BFBEC33FCED33FDEE337C
:100D0200FEC3EA95774008EAC39577FA430301D513
:100D120079D68B4F8C508D518E528A532285824ABE
:100D220085834B85564C85574D85584EE4F554F5D1
:100D320055AD59AE5AAF5B8D828E838FF012147F00
:100D4200FC74012DF559E43EF55A8F5BECFF7003FC
:100D5200021366BF2502800302135EE4F55DF55EB1
:100D6200F55FF560F561F562F563F564F566F573B7
:100D7200F5747567FF7568FF85596D855A6E855BD9
:100D82006F856D82856E83856FF012147FF570A377
:100D920085826D85836E856D59856E5A856F5B740C
:100DA20025B57008857082120C86808574D02570F6
:100DB2005068E57024C6406274FFB56736B5683383
:100DC20085737785747890000A12139F85827185E6
:100DD2008372AA707E00EA2571FAEE3572FEEA2469
:100DE200D0F573EE34FFF574E57345747093755E58
:100DF20001808E85677785687890000A12139FAE0E
:100E020082AB83AA707D00EA2EFEED3BFBEE24D07E
:100E1200F567EB34FFF568020D83742EB570157417
:100E2200FFB56705B568028003020D83E4F567F537
:100E320068020D83749F2570500EE570248540086A
:100E42005370DF75490180037549007420B5700342
:100E5200020EE9742BB57003020EE3742DB5700215
:100E620080797442B57003020EEF7443B5700302C9
:100E72000EFB7444B5700302107F7446B570030212
:100E820010967448B57003020D837449B57003025D
:100E9200107F744AB57003020D83744CB5700280E2
:100EA20052744FB570030210877450B5700302106C
:100EB200147453B5700280627454B57003020D83CA
:100EC2007455B5700302108C7458B57003021091FA
:100ED200745AB57003020D8302109B755D01020DF9
:100EE20083755F01020D83756001020D83756201D6
:100EF200020D83756301020D83E562600AE55C14ED
:100F0200F9895C8706800BE55C24FEFB8B5C8B0118
:100F120087068E82120C860210A9E55C24FDFE8EE5
:100F22005C8E01870209870309870619198A4F8B8C
:100F3200508E518A828B838EF012138785826D8543
:100F4200836E74FFB56709B56806856D67856E683F
:100F5200E55D7037C3E56D9573E56E9574502CE5CC
:100F620073C3956DF571E574956EF572AA71AE72E3
:100F7200157174FFB571021572EA4E600875822010
:100F8200120C8680E7857173857274AB67AE6885D3
:100F92004F828550838551F012147FFA8A6B603438
:100FA200C3E49B74808EF063F08095F050261BBBE7
:100FB200FF011E856B82C006C003120C86D003D0CF
:100FC20006AA4FAC50AD510ABA00010C8A4F8C50A0
:100FD2008D5180BBE55D70030210A9C3E56D957369
:100FE200E56E957440030210A9E573C3956DF57122
:100FF200E574956EF572AA71AE72157174FFB571D2
:10100200021572EA4E70030210A3758220120C863A
:1010120080E4E55C24FDFE8E5C8E01870209870375
:1010220009870619198A4F8B508E51AE51BE800026
:1010320040047B438014BE600040047B50800BBEA2
:10104200400040047B4980027B588B82C003120C13
:101052008675823A120C86758230120C86758278F9
:10106200120C86D003BB4902800BBB50028006855E
:101072005082120CC3854F82120CC3802A75610103
:1010820075660A8022756608801D75660A80187565
:1010920066108013756401800E857082120C868042
:1010A20006857173857274E5646060E55C24FCFEFC
:1010B2008E5C8E0187730987740987750987761993
:1010C200191985734F857450857551857652754F00
:1010D200F3755015755180854F7385507485517520
:1010E20074012573FAE43574FBAE758A4F8B508E0A
:1010F200518573828574838575F012147FFEFB70AF
:1011020003020D338B82120C8680CCE566700302DB
:101112000D33E562602BE55C14F9895C87068E026B
:101122007B007D007E008A4F8B508D518E52E5618F
:101132007064AA4FFBFDFE8A4F8B508D518E5280F8
:1011420055E5636021E55C24FCFE8E5C8E0187021E
:101152000987030987050987061919198A4F8B50D0
:101162008D518E528030E55C24FEFE8E5C8E0187AE
:101172000309870619EEFA3395E0FDFE8B4F8A507C
:101182008D518E52E561700EAA4FAB50FDFE8A4F13
:101192008B508D518E52E5616023E55230E71BC3BF
:1011A200E4954FFBE49550FCE49551FDE49552FE25
:1011B2008B4F8C508D518E52800375610075650185
:1011C20079807D007E00755300856682C006C00569
:1011D200C001120CDAD001D005D006E5657014E525
:1011E20053C454F0FCE553C4540F4204E7FB4CF7DC
:1011F200198002A7530DBD00010EE565B40100E49C
:1012020033F565E54F45504551455270B9896C8DAE
:10121200698E6AE57345747005757301F574E55E50
:10122200702DE55D7029AA73AB74AC690C7E00C3A6
:10123200EC9AEE9B5015758220C003C002120C86F8
:10124200D002D0031ABAFF011B80DF8A738B74E5C8
:1012520061601175822D120C86157374FFB57302CD
:101262001574802EE569456A6028E55F6011758214
:101272002B120C86157374FFB5730215748013E577
:1012820060600F758220120C86157374FFB57302AD
:101292001574E55D7033AD73AE748D038E041DBDA0
:1012A200FF011EC3E5699BE56A9C503EE55E600650
:1012B2007B307C0080047B207C008B82C006C005D2
:1012C200120C86D005D00680D1C3E5699573E56A14
:1012D2009574500FE573C39569F573E574956AF5D6
:1012E20074800BE4F573F57480048D738E74A96CAD
:1012F200AD69AE6A8D028E041DBDFF011EEA4C600F
:1013020030E565B40100E433F565700A09E7C454B9
:101312000FFC8C5380078704740F5CF5538553824E
:10132200C006C005C001120CA9D001D005D00680AC
:10133200C3E55D7003020D33AD73AE748D038E048D
:101342001DBDFF011EEB4C7003020D33758220C0E0
:1013520006C005120C86D005D00680E08F82120CE2
:0B13620086020D3385548285558322DE
:0B15F3003C4E4F20464C4F41543E0040
:10136D00E582C583F582A2D133A2D592D11392D550
:10137D00ECCFFCEBCEFBEACDFA22AA82AB831214A2
:10138D007F6003A380F8C3E5829AF582E5839BF520
:10139D008322E5828577F0A4C582C0F08578F0A41C
:1013AD00D0F025F0C5838577F0A42583F58322122F
:1013BD0008E630D502B2D1BF0009BC0003020C7B98
:1013CD00020C6EBC0003020C58E583B4FF0BE582E2
:1013DD00B4FF03020C7B020C58E582B4FF03020C30
:1013ED006EC395835007247F400B020C5824801444
:1013FD005003020C6EF582C3ED9AEE9BEF9C4011EB
:10140D001582C3EA33F9EB33FAEC33FBE433FC809A
:10141D0005E4CCCBCAF9C08275F019C3E99DEA9EEB
:10142D00EB9FEC9400D5F002802D400EE99DF9EA7A
:10143D009EFAEB9FFBEC9400FCC3B3E833F8E58216
:10144D0033F582E58333F583C3E933F9EA33FAEBF8
:10145D0033FBEC33FC80C4B3E4F938FAE43582FB9A
:10146D00E43583FCD082500405827C80120914027D
:02147D000C4F12
:0D0009007581801215C9E5826003020006B2
:10147F0020F71430F6148883A88220F507E6A88396
:10148F0075830022E280F7E49322E022C2D5E58340
:10149F0030E70DD2D5E4C39582F582E49583F583C9
:1014AF00E57830E70BE4C39577F577E49578F57831
:1014BF001209B530D50BE4C39582F582E49583F517
:1014CF008322FCABF0AA83A982749EF582C2D1EC71
:1014DF0030E716D2D1E9F42401F9EAF43400FAEB3B
:1014EF00F43400FBECF43400FC120914020C3760E6
:1014FF0040F82582500274FFF582E824F8501ECC84
:10150F00CBCAF9E4CC24F85014CBCAF9E4CB24F8B5
:10151F00500BCAF9E4CA24F850037900222408605A
:10152F0010F8C3EC13FCEB13FBEA13FAE913F9D829
:10153F00F12212159CC3749E9582403979001214C2
:10154F00FE30D126E9F42401F582EAF43400F58364
:10155F00EBF43400F5F0ECF43400700AE5824583C7
:10156F0045F0700122E430E70F22EC20E714898266
:10157F008A838BF02230D10AE4F582F583F5F0747B
:10158F00802274FFF582F583F5F0747F22AA82AB77
:10159F0083A2F73392D1F5826002D2F7ACF022200A
:1015AF00F71130F6138883A88220F509F6A8837502
:0E15BF0083002280FEF280F5F0227582002269
:00000001FF
