:03000000020006F5
:03005F0002000399
:030003000203B342
:10006200AF828F061FEE70FA22AE82AF837C007DD4
:10007200008C028D03C3EA9EEB9F50147A707B00C2
:100082001ABAFF011BEA4B70F70CBC00E40D80E1C9
:10009200228582A0C287C286D28575820112006241
:1000A200C285758201120062228582A0D287C28631
:1000B200D285758201120062C285758201120062C8
:1000C20022D284D283D28275821412006275823E59
:1000D2001200937582401200937582B812009375D4
:1000E20082C012009375823F12009322D284D2837F
:1000F2007E007F008E0574B82DF582C007C00612FF
:100102000093D006D0077C007D00758200C007C036
:1001120006C005C0041200ABD004D005D006D0073B
:100122000CBC00010DC3EC9440ED6480948040DA75
:100132000EBE00010FC3EE9408EF6480948040B4B9
:100142007582401200937582B812009322D284C243
:10015200837E007F008E0574B82DF582C007C0062D
:10016200120093D006D007C3EE9407EF6480948008
:10017200E433FDC3EE9403EF6480948092007B002D
:100182007C00200057EB4C7053758245C007C006B7
:10019200C005C004C003120093D003D004D005D020
:1001A20006D007ED601C7582FFC007C006C005C0FF
:1001B20004C0031200ABD003D004D005D006D00790
:1001C200801A75823FC007C006C005C004C0031272
:1001D20000ABD003D004D005D006D0070BBB000182
:1001E2000CC3EB9440EC6480948040960EBE0001F8
:1001F2000FC3EE9408EF6480948050030201577598
:1002020082BB12009375824312009375820412001E
:10021200AB7582441200937582021200AB7582465E
:100222001200937582021200AB7582471200937519
:1002320082041200ABD284C2837582BF120093750E
:1002420082461200937E067F00758220C007C00698
:100252001200ABD006D0070EBE00010FC3EE9440D1
:10026200EF6480948040E2C284D2837582BF120020
:10027200937582401200937E007F00758220C00732
:10028200C0061200ABD006D0070EBE00010FC3EEAF
:100292009420EF6480948040E275825E1200937530
:1002A20082701200AB75825D1200937582A81200F3
:1002B200AB22AF827802E4F208F208F2743F08F24D
:1002C200D284C28374B82FF58212009375824012D1
:1002D20000937A007F007C007B00EC247BF582EBAC
:1002E2003405F583E493F582C007C004C003C0025D
:1002F2001200ABD002D003D004D00774012AFDE46F
:100302003FFEED543F600302039CC002C007B2846B
:10031200B283C004C0037802E2C0E008E2C0E00891
:10032200E2C0E008E2C0E090000075F038744312C9
:1003320003CBAA82AD83AEF0FFE58124FCF581D028
:1003420003D0048A828D838EF0EFC007C004C003FD
:10035200C00212048D120093E4C0E0C0E0C0E07459
:100362003FC0E07802E2F58208E2F58308E2F5F0A8
:1003720008E21203CB7802C0E0E582F2E58308F2DC
:10038200E5F008F2D0E008F2E58124FCF581D00224
:10039200D003D004D007D007D0020ABA00010F0C54
:1003A200BC00010BC3EC9405EB940050030202DC89
:1003B200221200C31200EE12014F7582001202B423
:0903C2009001F412006B80FE2290
:1005760000000000007E1111117E7F494949363E78
:10058600414141227F4141221C7F494949417F091E
:100596000909013E4149497A7F0808087F00417FE1
:1005A60041002040413F017F081422417F404040E6
:1005B600407F020C027F7F0408107F3E4141413E8E
:1005C6007F090909063E4151215E7F0919294646E0
:1005D6004949493101017F01013F4040403F1F2009
:1005E60040201F3F4038403F6314081463070870DB
:0705F600080761514945436C
:06003500E478FFF6D8FD9F
:100013007900E94400601B7A009005FD780175A022
:1000230000E493F2A308B8000205A0D9F4DAF2754C
:02003300A0FF2C
:10003B007805E84400600A790175A000E4F309D85B
:10004B00FC7800E84400600C7900900001E4F0A318
:04005B00D8FCD9FAFA
:1003CB001204957900E583B58202800D5003120467
:1003DB0073E583C395821204C3E5D0C465D020E1D5
:1003EB0017EA2DFAEB3EFBEC3FFC500974011204AB
:1003FB00C3EC4480FC020424C3EA9DFAEB9EFBECA5
:10040B009FFC500FC3E499F9E49AFAE49BFBE49C3C
:10041B00FCB2D1120506020424B98003EA13B340DF
:10042B0010EA2401FAE43BFBE43CFC50047C80051D
:10043B0082BC000EBB000BBA0008E4F5F0F583F5A7
:10044B008222A2D1E582138CF092F78B838A8222CF
:10045B00E4F583F58275F080F4A2D11322E4F583E1
:10046B00F58275F0C0747F22E582C583F582A2D137
:10047B0033A2D592D11392D5ECCFFCEBCEFBEACDC8
:02048B00FA2253
:0D000600758120120560E582600302000391
:10048D007F8612053BF58222AA82AB83A2F73392B7
:10049D00D1F5826002D2F7ACF0E58124F9F8E6FDE2
:1004AD0008E6FE0886F008E6A2F73392D5F58360DC
:1004BD0002D2F7AFF0226040F82582500274FFF5AA
:1004CD0082E824F8501ECCCBCAF9E4CC24F85014A1
:1004DD00CBCAF9E4CB24F8500BCAF9E4CA24F8507E
:1004ED000379002224086010F8C3EC13FCEB13FB16
:1004FD00EA13FAE913F9D8F1227804EC7011E582C8
:10050D0024F8500AF582E4C9CACBFCD8EF22EC7866
:10051D0020058220E713D5820122C3E933F9EA339E
:10052D00FAEB33FBEC33FCD8EA1582227F9E1205E1
:10053D006430D103020445C3EF9582500974FFF571
:10054D00F0F583F5822279001204C389828A838BA8
:10055D00F0EC2275820022AA82AB83A2F73392D1EE
:09056D00F5826002D2F7ACF02225
:00000001FF
